{
  "_format": "hh-sol-artifact-1",
  "contractName": "PerformanceRule",
  "sourceName": "contracts/rules/PerformanceRule.sol",
  "abi": [
    {
      "inputs": [
        {
          "internalType": "address",
          "name": "_token",
          "type": "address"
        },
        {
          "internalType": "uint256",
          "name": "_targetBalance",
          "type": "uint256"
        }
      ],
      "stateMutability": "nonpayable",
      "type": "constructor"
    },
    {
      "inputs": [
        {
          "internalType": "address",
          "name": "_vault",
          "type": "address"
        }
      ],
      "name": "checkCondition",
      "outputs": [
        {
          "internalType": "bool",
          "name": "",
          "type": "bool"
        }
      ],
      "stateMutability": "view",
      "type": "function"
    },
    {
      "inputs": [
        {
          "internalType": "address",
          "name": "",
          "type": "address"
        }
      ],
      "name": "executeAction",
      "outputs": [
        {
          "internalType": "bool",
          "name": "success",
          "type": "bool"
        },
        {
          "internalType": "uint256",
          "name": "nextRuleIndex",
          "type": "uint256"
        }
      ],
      "stateMutability": "nonpayable",
      "type": "function"
    },
    {
      "inputs": [],
      "name": "getDescription",
      "outputs": [
        {
          "internalType": "string",
          "name": "",
          "type": "string"
        }
      ],
      "stateMutability": "view",
      "type": "function"
    },
    {
      "inputs": [],
      "name": "getTargetToken",
      "outputs": [
        {
          "internalType": "address",
          "name": "",
          "type": "address"
        }
      ],
      "stateMutability": "pure",
      "type": "function"
    },
    {
      "inputs": [],
      "name": "targetBalance",
      "outputs": [
        {
          "internalType": "uint256",
          "name": "",
          "type": "uint256"
        }
      ],
      "stateMutability": "view",
      "type": "function"
    },
    {
      "inputs": [],
      "name": "token",
      "outputs": [
        {
          "internalType": "contract IERC20",
          "name": "",
          "type": "address"
        }
      ],
      "stateMutability": "view",
      "type": "function"
    }
  ],
  "bytecode": "0x608060405234801561001057600080fd5b5060405161050538038061050583398101604081905261002f91610058565b600080546001600160a01b0319166001600160a01b039390931692909217909155600155610092565b6000806040838503121561006b57600080fd5b82516001600160a01b038116811461008257600080fd5b6020939093015192949293505050565b610464806100a16000396000f3fe608060405234801561001057600080fd5b50600436106100625760003560e01c80631a09254114610067578063227b63031461008557806343cce08e146100b357806380db0d51146100ca5780639aaa65c2146100e5578063fc0c546a14610108575b600080fd5b61006f61011b565b60405161007c9190610357565b60405180910390f35b61009c61009336600461038a565b50600190600090565b60408051921515835260208301919091520161007c565b6100bc60015481565b60405190815260200161007c565b60005b6040516001600160a01b03909116815260200161007c565b6100f86100f336600461038a565b61014c565b604051901515815260200161007c565b6000546100cd906001600160a01b031681565b60606101286001546101c7565b60405160200161013891906103ba565b604051602081830303815290604052905090565b600080546040516370a0823160e01b81526001600160a01b038481166004830152839216906370a0823190602401602060405180830381865afa158015610197573d6000803e3d6000fd5b505050506040513d601f19601f820116820180604052508101906101bb91906103ff565b60015411159392505050565b606060006101d48361025a565b600101905060008167ffffffffffffffff8111156101f4576101f4610418565b6040519080825280601f01601f19166020018201604052801561021e576020820181803683370190505b5090508181016020015b600019016f181899199a1a9b1b9c1cb0b131b232b360811b600a86061a8153600a850494508461022857509392505050565b60008072184f03e93ff9f4daa797ed6e38ed64bf6a1f0160401b83106102995772184f03e93ff9f4daa797ed6e38ed64bf6a1f0160401b830492506040015b6d04ee2d6d415b85acef810000000083106102c5576d04ee2d6d415b85acef8100000000830492506020015b662386f26fc1000083106102e357662386f26fc10000830492506010015b6305f5e10083106102fb576305f5e100830492506008015b612710831061030f57612710830492506004015b60648310610321576064830492506002015b600a831061032d576001015b92915050565b60005b8381101561034e578181015183820152602001610336565b50506000910152565b6020815260008251806020840152610376816040850160208701610333565b601f01601f19169190910160400192915050565b60006020828403121561039c57600080fd5b81356001600160a01b03811681146103b357600080fd5b9392505050565b7f506572666f726d616e63653a2042616c616e6365203e3d2000000000000000008152600082516103f2816018850160208701610333565b9190910160180192915050565b60006020828403121561041157600080fd5b5051919050565b634e487b7160e01b600052604160045260246000fdfea26469706673582212203936569390d839de96ab257e46e35c1674abe064a9c578534fc7a8fba425041764736f6c63430008140033",
  "linkReferences": {},
  "deployedLinkReferences": {}
}