{
  "_format": "hh-sol-artifact-1",
  "contractName": "PriceRule",
  "sourceName": "contracts/rules/PriceRule.sol",
  "abi": [
    {
      "inputs": [
        {
          "internalType": "address",
          "name": "_oracle",
          "type": "address"
        },
        {
          "internalType": "uint256",
          "name": "_targetPrice",
          "type": "uint256"
        },
        {
          "internalType": "bool",
          "name": "_isGreaterThan",
          "type": "bool"
        }
      ],
      "stateMutability": "nonpayable",
      "type": "constructor"
    },
    {
      "inputs": [
        {
          "internalType": "address",
          "name": "",
          "type": "address"
        }
      ],
      "name": "check",
      "outputs": [
        {
          "internalType": "bool",
          "name": "",
          "type": "bool"
        }
      ],
      "stateMutability": "view",
      "type": "function"
    },
    {
      "inputs": [],
      "name": "getDescription",
      "outputs": [
        {
          "internalType": "string",
          "name": "",
          "type": "string"
        }
      ],
      "stateMutability": "view",
      "type": "function"
    },
    {
      "inputs": [],
      "name": "isGreaterThan",
      "outputs": [
        {
          "internalType": "bool",
          "name": "",
          "type": "bool"
        }
      ],
      "stateMutability": "view",
      "type": "function"
    },
    {
      "inputs": [],
      "name": "oracle",
      "outputs": [
        {
          "internalType": "contract AggregatorV3Interface",
          "name": "",
          "type": "address"
        }
      ],
      "stateMutability": "view",
      "type": "function"
    },
    {
      "inputs": [],
      "name": "targetPrice",
      "outputs": [
        {
          "internalType": "uint256",
          "name": "",
          "type": "uint256"
        }
      ],
      "stateMutability": "view",
      "type": "function"
    }
  ],
  "bytecode": "0x608060405234801561001057600080fd5b5060405161061238038061061283398101604081905261002f91610069565b600080546001600160a01b0319166001600160a01b0394909416939093179092556001556002805460ff19169115159190911790556100bd565b60008060006060848603121561007e57600080fd5b83516001600160a01b038116811461009557600080fd5b60208501516040860151919450925080151581146100b257600080fd5b809150509250925092565b610546806100cc6000396000f3fe608060405234801561001057600080fd5b50600436106100575760003560e01c80631a0925411461005c57806353f1eb511461007a5780637dc0d1d014610097578063c23697a8146100c2578063dc38679c146100d5575b600080fd5b6100646100ec565b60405161007191906103d1565b60405180910390f35b6002546100879060ff1681565b6040519015158152602001610071565b6000546100aa906001600160a01b031681565b6040516001600160a01b039091168152602001610071565b6100876100d0366004610404565b61016a565b6100de60015481565b604051908152602001610071565b60025460609060009060ff1661011b57604051806040016040528060018152602001600f60fa1b815250610136565b604051806040016040528060018152602001601f60f91b8152505b905080610144600154610241565b604051602001610155929190610434565b60405160208183030381529060405291505090565b6000805460408051633fabe5a360e21b8152905183926001600160a01b03169163feaf968c9160048083019260a09291908290030181865afa1580156101b4573d6000803e3d6000fd5b505050506040513d601f19601f820116820180604052508101906101d891906104aa565b505050915050600081136102225760405162461bcd60e51b815260206004820152600d60248201526c496e76616c696420707269636560981b604482015260640160405180910390fd5b60025460ff1615610237576001541092915050565b6001541192915050565b6060600061024e836102d4565b600101905060008167ffffffffffffffff81111561026e5761026e6104fa565b6040519080825280601f01601f191660200182016040528015610298576020820181803683370190505b5090508181016020015b600019016f181899199a1a9b1b9c1cb0b131b232b360811b600a86061a8153600a85049450846102a257509392505050565b60008072184f03e93ff9f4daa797ed6e38ed64bf6a1f0160401b83106103135772184f03e93ff9f4daa797ed6e38ed64bf6a1f0160401b830492506040015b6d04ee2d6d415b85acef8100000000831061033f576d04ee2d6d415b85acef8100000000830492506020015b662386f26fc10000831061035d57662386f26fc10000830492506010015b6305f5e1008310610375576305f5e100830492506008015b612710831061038957612710830492506004015b6064831061039b576064830492506002015b600a83106103a7576001015b92915050565b60005b838110156103c85781810151838201526020016103b0565b50506000910152565b60208152600082518060208401526103f08160408501602087016103ad565b601f01601f19169190910160400192915050565b60006020828403121561041657600080fd5b81356001600160a01b038116811461042d57600080fd5b9392505050565b6e0283934b1b29d1021bab93932b73a1608d1b81526000835161045e81600f8501602088016103ad565b600160fd1b600f91840191820152835161047f8160108401602088016103ad565b01601001949350505050565b805169ffffffffffffffffffff811681146104a557600080fd5b919050565b600080600080600060a086880312156104c257600080fd5b6104cb8661048b565b94506020860151935060408601519250606086015191506104ee6080870161048b565b90509295509295909350565b634e487b7160e01b600052604160045260246000fdfea26469706673582212207668d6f9e0294246385146e0989eb0bce8aec037249cd63bef9c49f72b1fb24e64736f6c63430008140033",
  "linkReferences": {},
  "deployedLinkReferences": {}
}