{
  "_format": "hh-sol-artifact-1",
  "contractName": "PriceRule",
  "sourceName": "contracts/rules/PriceRule.sol",
  "abi": [
    {
      "inputs": [
        {
          "internalType": "address",
          "name": "_oracle",
          "type": "address"
        },
        {
          "internalType": "uint256",
          "name": "_targetPrice",
          "type": "uint256"
        },
        {
          "internalType": "bool",
          "name": "_isGreaterThan",
          "type": "bool"
        }
      ],
      "stateMutability": "nonpayable",
      "type": "constructor"
    },
    {
      "inputs": [
        {
          "internalType": "address",
          "name": "",
          "type": "address"
        }
      ],
      "name": "checkCondition",
      "outputs": [
        {
          "internalType": "bool",
          "name": "",
          "type": "bool"
        }
      ],
      "stateMutability": "view",
      "type": "function"
    },
    {
      "inputs": [
        {
          "internalType": "address",
          "name": "",
          "type": "address"
        }
      ],
      "name": "executeAction",
      "outputs": [
        {
          "internalType": "bool",
          "name": "success",
          "type": "bool"
        },
        {
          "internalType": "uint256",
          "name": "nextRuleIndex",
          "type": "uint256"
        }
      ],
      "stateMutability": "nonpayable",
      "type": "function"
    },
    {
      "inputs": [],
      "name": "getDescription",
      "outputs": [
        {
          "internalType": "string",
          "name": "",
          "type": "string"
        }
      ],
      "stateMutability": "view",
      "type": "function"
    },
    {
      "inputs": [],
      "name": "getTargetToken",
      "outputs": [
        {
          "internalType": "address",
          "name": "",
          "type": "address"
        }
      ],
      "stateMutability": "pure",
      "type": "function"
    },
    {
      "inputs": [],
      "name": "isGreaterThan",
      "outputs": [
        {
          "internalType": "bool",
          "name": "",
          "type": "bool"
        }
      ],
      "stateMutability": "view",
      "type": "function"
    },
    {
      "inputs": [],
      "name": "oracle",
      "outputs": [
        {
          "internalType": "contract AggregatorV3Interface",
          "name": "",
          "type": "address"
        }
      ],
      "stateMutability": "view",
      "type": "function"
    },
    {
      "inputs": [],
      "name": "targetPrice",
      "outputs": [
        {
          "internalType": "uint256",
          "name": "",
          "type": "uint256"
        }
      ],
      "stateMutability": "view",
      "type": "function"
    }
  ],
  "bytecode": "0x608060405234801561001057600080fd5b5060405161066d38038061066d83398101604081905261002f91610069565b600080546001600160a01b0319166001600160a01b0394909416939093179092556001556002805460ff19169115159190911790556100bd565b60008060006060848603121561007e57600080fd5b83516001600160a01b038116811461009557600080fd5b60208501516040860151919450925080151581146100b257600080fd5b809150509250925092565b6105a1806100cc6000396000f3fe608060405234801561001057600080fd5b506004361061007d5760003560e01c80637dc0d1d01161005b5780637dc0d1d0146100eb57806380db0d51146101165780639aaa65c21461011d578063dc38679c1461013057600080fd5b80631a09254114610082578063227b6303146100a057806353f1eb51146100ce575b600080fd5b61008a610147565b604051610097919061042c565b60405180910390f35b6100b76100ae36600461045f565b50600190600090565b604080519215158352602083019190915201610097565b6002546100db9060ff1681565b6040519015158152602001610097565b6000546100fe906001600160a01b031681565b6040516001600160a01b039091168152602001610097565b60006100fe565b6100db61012b36600461045f565b6101c5565b61013960015481565b604051908152602001610097565b60025460609060009060ff1661017657604051806040016040528060018152602001600f60fa1b815250610191565b604051806040016040528060018152602001601f60f91b8152505b90508061019f60015461029c565b6040516020016101b092919061048f565b60405160208183030381529060405291505090565b6000805460408051633fabe5a360e21b8152905183926001600160a01b03169163feaf968c9160048083019260a09291908290030181865afa15801561020f573d6000803e3d6000fd5b505050506040513d601f19601f820116820180604052508101906102339190610505565b5050509150506000811361027d5760405162461bcd60e51b815260206004820152600d60248201526c496e76616c696420707269636560981b604482015260640160405180910390fd5b60025460ff1615610292576001541092915050565b6001541192915050565b606060006102a98361032f565b600101905060008167ffffffffffffffff8111156102c9576102c9610555565b6040519080825280601f01601f1916602001820160405280156102f3576020820181803683370190505b5090508181016020015b600019016f181899199a1a9b1b9c1cb0b131b232b360811b600a86061a8153600a85049450846102fd57509392505050565b60008072184f03e93ff9f4daa797ed6e38ed64bf6a1f0160401b831061036e5772184f03e93ff9f4daa797ed6e38ed64bf6a1f0160401b830492506040015b6d04ee2d6d415b85acef8100000000831061039a576d04ee2d6d415b85acef8100000000830492506020015b662386f26fc1000083106103b857662386f26fc10000830492506010015b6305f5e10083106103d0576305f5e100830492506008015b61271083106103e457612710830492506004015b606483106103f6576064830492506002015b600a8310610402576001015b92915050565b60005b8381101561042357818101518382015260200161040b565b50506000910152565b602081526000825180602084015261044b816040850160208701610408565b601f01601f19169190910160400192915050565b60006020828403121561047157600080fd5b81356001600160a01b038116811461048857600080fd5b9392505050565b6e0283934b1b29d1021bab93932b73a1608d1b8152600083516104b981600f850160208801610408565b600160fd1b600f9184019182015283516104da816010840160208801610408565b01601001949350505050565b805169ffffffffffffffffffff8116811461050057600080fd5b919050565b600080600080600060a0868803121561051d57600080fd5b610526866104e6565b9450602086015193506040860151925060608601519150610549608087016104e6565b90509295509295909350565b634e487b7160e01b600052604160045260246000fdfea264697066735822122062479ad124bb9d977b6ceb10c91e54eea7aa25617239e303cf4ed0955ebd358864736f6c63430008140033",
  "linkReferences": {},
  "deployedLinkReferences": {}
}