{
  "_format": "hh-sol-artifact-1",
  "contractName": "StrategyFactory",
  "sourceName": "contracts/StrategyFactory.sol",
  "abi": [
    {
      "anonymous": false,
      "inputs": [
        {
          "indexed": true,
          "internalType": "address",
          "name": "strategyAddress",
          "type": "address"
        },
        {
          "indexed": true,
          "internalType": "address",
          "name": "creator",
          "type": "address"
        },
        {
          "indexed": true,
          "internalType": "address",
          "name": "beneficiary",
          "type": "address"
        }
      ],
      "name": "StrategyCreated",
      "type": "event"
    },
    {
      "anonymous": false,
      "inputs": [
        {
          "indexed": true,
          "internalType": "address",
          "name": "strategyAddress",
          "type": "address"
        },
        {
          "indexed": false,
          "internalType": "uint256",
          "name": "timestamp",
          "type": "uint256"
        }
      ],
      "name": "StrategyExecuted",
      "type": "event"
    },
    {
      "inputs": [
        {
          "components": [
            {
              "internalType": "address",
              "name": "inputAsset",
              "type": "address"
            },
            {
              "internalType": "address",
              "name": "targetAsset",
              "type": "address"
            },
            {
              "internalType": "address",
              "name": "oracle",
              "type": "address"
            },
            {
              "internalType": "uint256",
              "name": "triggerCondition",
              "type": "uint256"
            },
            {
              "internalType": "uint256",
              "name": "executionAmount",
              "type": "uint256"
            },
            {
              "internalType": "uint256",
              "name": "lockPeriod",
              "type": "uint256"
            },
            {
              "internalType": "address",
              "name": "beneficiary",
              "type": "address"
            },
            {
              "internalType": "bool",
              "name": "conditionType",
              "type": "bool"
            },
            {
              "internalType": "address",
              "name": "router",
              "type": "address"
            },
            {
              "internalType": "address",
              "name": "hub",
              "type": "address"
            },
            {
              "internalType": "uint64",
              "name": "destinationChainSelector",
              "type": "uint64"
            },
            {
              "internalType": "address",
              "name": "linkToken",
              "type": "address"
            }
          ],
          "internalType": "struct StrategyVault.StrategyParams",
          "name": "params",
          "type": "tuple"
        }
      ],
      "name": "createStrategy",
      "outputs": [
        {
          "internalType": "address",
          "name": "",
          "type": "address"
        }
      ],
      "stateMutability": "nonpayable",
      "type": "function"
    },
    {
      "inputs": [
        {
          "internalType": "uint256",
          "name": "",
          "type": "uint256"
        }
      ],
      "name": "deployedStrategies",
      "outputs": [
        {
          "internalType": "address",
          "name": "",
          "type": "address"
        }
      ],
      "stateMutability": "view",
      "type": "function"
    },
    {
      "inputs": [],
      "name": "getAllStrategies",
      "outputs": [
        {
          "internalType": "address[]",
          "name": "",
          "type": "address[]"
        }
      ],
      "stateMutability": "view",
      "type": "function"
    },
    {
      "inputs": [
        {
          "internalType": "uint256",
          "name": "index",
          "type": "uint256"
        }
      ],
      "name": "getStrategy",
      "outputs": [
        {
          "internalType": "address",
          "name": "",
          "type": "address"
        }
      ],
      "stateMutability": "view",
      "type": "function"
    },
    {
      "inputs": [],
      "name": "getStrategyCount",
      "outputs": [
        {
          "internalType": "uint256",
          "name": "",
          "type": "uint256"
        }
      ],
      "stateMutability": "view",
      "type": "function"
    }
  ],
  "bytecode": "0x608060405234801561001057600080fd5b50611dd8806100206000396000f3fe60806040523480156200001157600080fd5b50600436106200005e5760003560e01c806331e19cfa1462000063578063b6c936811462000079578063c3b2886414620000a9578063cfc0cc3414620000c2578063d35d1a9014620000d9575b600080fd5b6000546040519081526020015b60405180910390f35b620000906200008a366004620002d0565b620000f0565b6040516001600160a01b03909116815260200162000070565b620000b36200011b565b604051620000709190620002ea565b62000090620000d3366004620002d0565b6200017f565b62000090620000ea366004620003b9565b620001fd565b600081815481106200010157600080fd5b6000918252602090912001546001600160a01b0316905081565b606060008054806020026020016040519081016040528092919081815260200182805480156200017557602002820191906000526020600020905b81546001600160a01b0316815260019091019060200180831162000156575b5050505050905090565b600080548210620001cc5760405162461bcd60e51b8152602060048201526013602482015272496e646578206f7574206f6620626f756e647360681b604482015260640160405180910390fd5b60008281548110620001e257620001e2620004a5565b6000918252602090912001546001600160a01b031692915050565b600080826040516200020f90620002c2565b6200021b9190620004bb565b604051809103906000f08015801562000238573d6000803e3d6000fd5b50600080546001810182558180527f290decd9548b62a8d60345a988386fc84ba6bc95484008f6362f93160ef3e5630180546001600160a01b0319166001600160a01b0384811691821790925560c0870151604051949550859492169233927f27b29fd8831617ae32cc016e8e7b6f137c66cffd9bd505cd913acc6c0eeb84499190a49392505050565b61180080620005a383390190565b600060208284031215620002e357600080fd5b5035919050565b6020808252825182820181905260009190848201906040850190845b818110156200032d5783516001600160a01b03168352928401929184019160010162000306565b50909695505050505050565b604051610180810167ffffffffffffffff811182821017156200036c57634e487b7160e01b600052604160045260246000fd5b60405290565b80356001600160a01b03811681146200038a57600080fd5b919050565b803580151581146200038a57600080fd5b803567ffffffffffffffff811681146200038a57600080fd5b60006101808284031215620003cd57600080fd5b620003d762000339565b620003e28362000372565b8152620003f26020840162000372565b6020820152620004056040840162000372565b6040820152606083013560608201526080830135608082015260a083013560a08201526200043660c0840162000372565b60c08201526200044960e084016200038f565b60e08201526101006200045e81850162000372565b908201526101206200047284820162000372565b9082015261014062000486848201620003a0565b908201526101606200049a84820162000372565b908201529392505050565b634e487b7160e01b600052603260045260246000fd5b81516001600160a01b0316815261018081016020830151620004e860208401826001600160a01b03169052565b5060408301516200050460408401826001600160a01b03169052565b50606083015160608301526080830151608083015260a083015160a083015260c08301516200053e60c08401826001600160a01b03169052565b5060e08301516200055360e084018215159052565b50610100838101516001600160a01b0390811691840191909152610120808501518216908401526101408085015167ffffffffffffffff1690840152610160938401511692909101919091529056fe60806040523480156200001157600080fd5b506040516200180038038062001800833981016040819052620000349162000482565b60c081015160016000556001600160a01b0381166200006e57604051631e4fbdf760e01b8152600060048201526024015b60405180910390fd5b6200007981620003b2565b5080516001600160a01b0316620000d35760405162461bcd60e51b815260206004820152601360248201527f496e76616c696420696e70757420617373657400000000000000000000000000604482015260640162000065565b60208101516001600160a01b03166200012f5760405162461bcd60e51b815260206004820152601460248201527f496e76616c696420746172676574206173736574000000000000000000000000604482015260640162000065565b60408101516001600160a01b03166200017c5760405162461bcd60e51b815260206004820152600e60248201526d496e76616c6964206f7261636c6560901b604482015260640162000065565b6000816060015111620001d25760405162461bcd60e51b815260206004820152601960248201527f496e76616c6964207472696767657220636f6e646974696f6e00000000000000604482015260640162000065565b60c08101516001600160a01b03166200022e5760405162461bcd60e51b815260206004820152601360248201527f496e76616c69642062656e656669636961727900000000000000000000000000604482015260640162000065565b6101008101516001600160a01b03166200027c5760405162461bcd60e51b815260206004820152600e60248201526d24b73b30b634b2103937baba32b960911b604482015260640162000065565b6101208101516001600160a01b0316620002c75760405162461bcd60e51b815260206004820152600b60248201526a24b73b30b634b210343ab160a91b604482015260640162000065565b8051600280546001600160a01b03199081166001600160a01b0393841617909155602083015160038054831691841691909117905560408301516004805483169184169190911790556060830151600555608083015160065560a083015160075560c08301516008805460e08601519285166001600160a81b031990911617600160a01b9215158302179055610100840151600980548416918516919091179055610120840151600a80546101408701519286166001600160e01b0319909116176001600160401b0390921690920217905561016090920151600b805490931691161790556200056e565b600180546001600160a01b038381166001600160a01b0319831681179093556040519116919082907f8be0079c531659141344cd1fd0a4f28419497f9722a3daafe3b4186f6b6457e090600090a35050565b60405161018081016001600160401b03811182821017156200043657634e487b7160e01b600052604160045260246000fd5b60405290565b80516001600160a01b03811681146200045457600080fd5b919050565b805180151581146200045457600080fd5b80516001600160401b03811681146200045457600080fd5b600061018082840312156200049657600080fd5b620004a062000404565b620004ab836200043c565b8152620004bb602084016200043c565b6020820152620004ce604084016200043c565b6040820152606083015160608201526080830151608082015260a083015160a0820152620004ff60c084016200043c565b60c08201526200051260e0840162000459565b60e0820152610100620005278185016200043c565b908201526101206200053b8482016200043c565b908201526101406200054f8482016200046a565b90820152610160620005638482016200043c565b908201529392505050565b611282806200057e6000396000f3fe608060405234801561001057600080fd5b50600436106101005760003560e01c80638dc654a211610097578063cff0ab9611610066578063cff0ab96146101d6578063dfd09fa5146102b5578063f2fde38b146102bd578063ff50abdc146102d057600080fd5b80638dc654a2146101a0578063b6b55f25146101a8578063b91d4001146101bb578063cf309012146101c457600080fd5b80634e69d560116100d35780634e69d5601461014f578063715018a61461017457806373b379bd1461017c5780638da5cb5b1461018557600080fd5b806312065fe01461010557806331a38c89146101205780633ccfd60b1461013d5780634464718514610147575b600080fd5b61010d6102d9565b6040519081526020015b60405180910390f35b600f5461012d9060ff1681565b6040519015158152602001610117565b61014561034b565b005b6101456105e7565b610157610a4a565b604080519315158452911515602084015290820152606001610117565b610145610a89565b61010d600d5481565b6001546040516001600160a01b039091168152602001610117565b610145610a9b565b6101456101b6366004611056565b610bd1565b61010d600e5481565b600f5461012d90610100900460ff1681565b600254600354600454600554600654600754600854600954600a54600b54610239996001600160a01b039081169981169881169796959481811694600160a01b9182900460ff169490831693838216939290910467ffffffffffffffff1691168c565b604080516001600160a01b039d8e1681529b8d1660208d0152998c16998b019990995260608a0197909752608089019590955260a088019390935290871660c0870152151560e08601528516610100850152841661012084015267ffffffffffffffff1661014083015290911661016082015261018001610117565b61012d610d8d565b6101456102cb36600461106f565b610dab565b61010d600c5481565b6002546040516370a0823160e01b81523060048201526000916001600160a01b0316906370a0823190602401602060405180830381865afa158015610322573d6000803e3d6000fd5b505050506040513d601f19601f82011682018060405250810190610346919061109f565b905090565b610353610de6565b61035b610e10565b600f5460ff166103aa5760405162461bcd60e51b815260206004820152601560248201527414dd1c985d1959de481b9bdd08195e1958dd5d1959605a1b60448201526064015b60405180910390fd5b600e544210156103f45760405162461bcd60e51b8152602060048201526015602482015274131bd8dac81c195c9a5bd9081b9bdd08195b991959605a1b60448201526064016103a1565b6002546040516370a0823160e01b81523060048201526001600160a01b039091169060009082906370a0823190602401602060405180830381865afa158015610441573d6000803e3d6000fd5b505050506040513d601f19601f82011682018060405250810190610465919061109f565b9050600081116104ae5760405162461bcd60e51b81526020600482015260146024820152734e6f2066756e647320746f20776974686472617760601b60448201526064016103a1565b816001600160a01b031663a9059cbb6104cf6001546001600160a01b031690565b6040516001600160e01b031960e084901b1681526001600160a01b039091166004820152602481018490526044016020604051808303816000875af115801561051c573d6000803e3d6000fd5b505050506040513d601f19601f8201168201806040525081019061054091906110b8565b6105805760405162461bcd60e51b815260206004820152601160248201527015da5d1a191c985dd85b0819985a5b1959607a1b60448201526064016103a1565b600f805461ff00191690556001546001600160a01b03166001600160a01b03167f7084f5476618d8e60b11ef0d7d3f06914655adb8793e28ff7f018d4c76d505d5826040516105d191815260200190565b60405180910390a250506105e56001600055565b565b6105ef610de6565b600f5460ff161561063e5760405162461bcd60e51b815260206004820152601960248201527814dd1c985d1959de48185b1c9958591e48195e1958dd5d1959603a1b60448201526064016103a1565b610646610d8d565b6106875760405162461bcd60e51b815260206004820152601260248201527110dbdb991a5d1a5bdb9cc81b9bdd081b595d60721b60448201526064016103a1565b600654600c5410156106d05760405162461bcd60e51b8152602060048201526012602482015271496e73756666696369656e742066756e647360701b60448201526064016103a1565b600f805460ff1916600117905542600d8190556007546106ef916110f0565b600e55600f805461ff001916610100179055600654156107885760025460095460065460405163095ea7b360e01b81526001600160a01b039283166004820152602481019190915291169063095ea7b3906044016020604051808303816000875af1158015610762573d6000803e3d6000fd5b505050506040513d601f19601f8201168201806040525081019061078691906110b8565b505b6002546006546000916107a6916001600160a01b0390911690610e3d565b600954600a546040516320487ded60e01b81529293506001600160a01b039091169160009183916320487ded916107f491600160a01b90910467ffffffffffffffff16908790600401611149565b602060405180830381865afa158015610811573d6000803e3d6000fd5b505050506040513d601f19601f82011682018060405250810190610835919061109f565b600b546040516370a0823160e01b81523060048201529192506001600160a01b031690829082906370a0823190602401602060405180830381865afa158015610882573d6000803e3d6000fd5b505050506040513d601f19601f820116820180604052508101906108a6919061109f565b10156108f45760405162461bcd60e51b815260206004820152601a60248201527f496e73756666696369656e74204c494e4b20666f72206665657300000000000060448201526064016103a1565b60095460405163095ea7b360e01b81526001600160a01b039182166004820152602481018490529082169063095ea7b3906044016020604051808303816000875af1158015610947573d6000803e3d6000fd5b505050506040513d601f19601f8201168201806040525081019061096b91906110b8565b50600a546040516396f4e9f960e01b81526000916001600160a01b038616916396f4e9f9916109b191600160a01b90910467ffffffffffffffff16908990600401611149565b6020604051808303816000875af11580156109d0573d6000803e3d6000fd5b505050506040513d601f19601f820116820180604052508101906109f4919061109f565b60065460408051428152602081019290925281018290529091507fc4c2ff260223f64dc3973e2773122d86e42d047c7c71ff5104f31004f74a5d699060600160405180910390a150505050506105e56001600055565b600f5460ff808216916101009004166000818015610a695750600e5442105b610a74576000610a82565b42600e54610a829190611223565b9050909192565b610a91610e10565b6105e56000611004565b610aa3610e10565b600b546040516370a0823160e01b81523060048201526001600160a01b039091169060009082906370a0823190602401602060405180830381865afa158015610af0573d6000803e3d6000fd5b505050506040513d601f19601f82011682018060405250810190610b14919061109f565b60405163a9059cbb60e01b8152336004820152602481018290529091506001600160a01b0383169063a9059cbb906044016020604051808303816000875af1158015610b64573d6000803e3d6000fd5b505050506040513d601f19601f82011682018060405250810190610b8891906110b8565b610bcd5760405162461bcd60e51b815260206004820152601660248201527513125392c81dda5d1a191c985dd85b0819985a5b195960521b60448201526064016103a1565b5050565b610bd9610de6565b600f5460ff1615610c285760405162461bcd60e51b815260206004820152601960248201527814dd1c985d1959de48185b1c9958591e48195e1958dd5d1959603a1b60448201526064016103a1565b60008111610c785760405162461bcd60e51b815260206004820152601d60248201527f416d6f756e74206d7573742062652067726561746572207468616e203000000060448201526064016103a1565b6002546040516323b872dd60e01b8152336004820152306024820152604481018390526001600160a01b039091169081906323b872dd906064016020604051808303816000875af1158015610cd1573d6000803e3d6000fd5b505050506040513d601f19601f82011682018060405250810190610cf591906110b8565b610d335760405162461bcd60e51b815260206004820152600f60248201526e151c985b9cd9995c8819985a5b1959608a1b60448201526064016103a1565b81600c6000828254610d4591906110f0565b909155505060405182815233907f2da466a7b24304f47e87fa2e1e5a81b9831ce54fec19055ce277ca2f39ba42c49060200160405180910390a250610d8a6001600055565b50565b600f5460009060ff1615610da15750600090565b5060055442101590565b610db3610e10565b6001600160a01b038116610ddd57604051631e4fbdf760e01b8152600060048201526024016103a1565b610d8a81611004565b600260005403610e0957604051633ee5aeb560e01b815260040160405180910390fd5b6002600055565b6001546001600160a01b031633146105e55760405163118cdaa760e01b81523360048201526024016103a1565b610e786040518060a0016040528060608152602001606081526020016060815260200160006001600160a01b03168152602001606081525090565b60608215610eff5760408051600180825281830190925290816020015b6040805180820190915260008082526020820152815260200190600190039081610e955790505090506040518060400160405280856001600160a01b031681526020018481525081600081518110610eef57610eef611236565b6020026020010181905250610f40565b6040805160008082526020820190925290610f3c565b6040805180820190915260008082526020820152815260200190600190039081610f155790505b5090505b6040805160a081018252600a546001600160a01b0390811660c0808401919091528351808403909101815260e08301845282526008546007548451918316602080840191909152828601919091528451808303860181526060928301865281850152838501869052600b54909216908301528251808201845262030d4090819052835160248082019290925284518082039092018252604401909352820180516001600160e01b03166397a657c960e01b1790529060808201529150505b92915050565b600180546001600160a01b038381166001600160a01b0319831681179093556040519116919082907f8be0079c531659141344cd1fd0a4f28419497f9722a3daafe3b4186f6b6457e090600090a35050565b60006020828403121561106857600080fd5b5035919050565b60006020828403121561108157600080fd5b81356001600160a01b038116811461109857600080fd5b9392505050565b6000602082840312156110b157600080fd5b5051919050565b6000602082840312156110ca57600080fd5b8151801515811461109857600080fd5b634e487b7160e01b600052601160045260246000fd5b80820180821115610ffe57610ffe6110da565b6000815180845260005b818110156111295760208185018101518683018201520161110d565b506000602082860101526020601f19601f83011685010191505092915050565b6000604067ffffffffffffffff8516835260208181850152845160a08386015261117660e0860182611103565b905081860151603f19808784030160608801526111938383611103565b88860151888203830160808a01528051808352908601945060009350908501905b808410156111e657845180516001600160a01b03168352860151868301529385019360019390930192908601906111b4565b5060608901516001600160a01b031660a08901526080890151888203830160c08a015295506112158187611103565b9a9950505050505050505050565b81810381811115610ffe57610ffe6110da565b634e487b7160e01b600052603260045260246000fdfea2646970667358221220abd44a34e5043e720403c9ebf5a23068bb8a5b41a569732fc3313244a55908cd64736f6c63430008140033a26469706673582212203b413695a4a84ade3434aafab4c24de2ad8b1409b1f6c814cee7a8ef589539c664736f6c63430008140033",
  "linkReferences": {},
  "deployedLinkReferences": {}
}