{
  "_format": "hh-sol-artifact-1",
  "contractName": "StrategyVault",
  "sourceName": "contracts/StrategyVault.sol",
  "abi": [
    {
      "inputs": [
        {
          "components": [
            {
              "internalType": "string",
              "name": "name",
              "type": "string"
            },
            {
              "internalType": "address",
              "name": "inputAsset",
              "type": "address"
            },
            {
              "internalType": "address",
              "name": "targetAsset",
              "type": "address"
            },
            {
              "internalType": "uint256",
              "name": "executionAmount",
              "type": "uint256"
            },
            {
              "internalType": "uint256",
              "name": "lockPeriod",
              "type": "uint256"
            },
            {
              "internalType": "address",
              "name": "beneficiary",
              "type": "address"
            },
            {
              "internalType": "address",
              "name": "router",
              "type": "address"
            },
            {
              "internalType": "address",
              "name": "hub",
              "type": "address"
            },
            {
              "internalType": "uint64",
              "name": "destinationChainSelector",
              "type": "uint64"
            },
            {
              "internalType": "address",
              "name": "linkToken",
              "type": "address"
            },
            {
              "internalType": "contract IRule[]",
              "name": "rules",
              "type": "address[]"
            }
          ],
          "internalType": "struct StrategyVault.StrategyParams",
          "name": "_params",
          "type": "tuple"
        }
      ],
      "stateMutability": "nonpayable",
      "type": "constructor"
    },
    {
      "inputs": [
        {
          "internalType": "address",
          "name": "owner",
          "type": "address"
        }
      ],
      "name": "OwnableInvalidOwner",
      "type": "error"
    },
    {
      "inputs": [
        {
          "internalType": "address",
          "name": "account",
          "type": "address"
        }
      ],
      "name": "OwnableUnauthorizedAccount",
      "type": "error"
    },
    {
      "inputs": [],
      "name": "ReentrancyGuardReentrantCall",
      "type": "error"
    },
    {
      "anonymous": false,
      "inputs": [
        {
          "indexed": true,
          "internalType": "address",
          "name": "depositor",
          "type": "address"
        },
        {
          "indexed": false,
          "internalType": "uint256",
          "name": "amount",
          "type": "uint256"
        }
      ],
      "name": "Deposited",
      "type": "event"
    },
    {
      "anonymous": false,
      "inputs": [
        {
          "indexed": true,
          "internalType": "address",
          "name": "previousOwner",
          "type": "address"
        },
        {
          "indexed": true,
          "internalType": "address",
          "name": "newOwner",
          "type": "address"
        }
      ],
      "name": "OwnershipTransferred",
      "type": "event"
    },
    {
      "anonymous": false,
      "inputs": [
        {
          "indexed": false,
          "internalType": "uint256",
          "name": "timestamp",
          "type": "uint256"
        },
        {
          "indexed": false,
          "internalType": "uint256",
          "name": "amount",
          "type": "uint256"
        },
        {
          "indexed": false,
          "internalType": "bytes32",
          "name": "messageId",
          "type": "bytes32"
        }
      ],
      "name": "StrategyExecuted",
      "type": "event"
    },
    {
      "anonymous": false,
      "inputs": [
        {
          "indexed": true,
          "internalType": "address",
          "name": "beneficiary",
          "type": "address"
        },
        {
          "indexed": false,
          "internalType": "uint256",
          "name": "amount",
          "type": "uint256"
        }
      ],
      "name": "Withdrawn",
      "type": "event"
    },
    {
      "inputs": [
        {
          "internalType": "contract IRule",
          "name": "_rule",
          "type": "address"
        }
      ],
      "name": "addRule",
      "outputs": [],
      "stateMutability": "nonpayable",
      "type": "function"
    },
    {
      "inputs": [],
      "name": "checkConditions",
      "outputs": [
        {
          "internalType": "bool",
          "name": "",
          "type": "bool"
        }
      ],
      "stateMutability": "view",
      "type": "function"
    },
    {
      "inputs": [],
      "name": "deploymentTime",
      "outputs": [
        {
          "internalType": "uint256",
          "name": "",
          "type": "uint256"
        }
      ],
      "stateMutability": "view",
      "type": "function"
    },
    {
      "inputs": [
        {
          "internalType": "uint256",
          "name": "amount",
          "type": "uint256"
        }
      ],
      "name": "deposit",
      "outputs": [],
      "stateMutability": "nonpayable",
      "type": "function"
    },
    {
      "inputs": [],
      "name": "emergencyWithdraw",
      "outputs": [],
      "stateMutability": "nonpayable",
      "type": "function"
    },
    {
      "inputs": [],
      "name": "executeStrategy",
      "outputs": [],
      "stateMutability": "nonpayable",
      "type": "function"
    },
    {
      "inputs": [],
      "name": "executed",
      "outputs": [
        {
          "internalType": "bool",
          "name": "",
          "type": "bool"
        }
      ],
      "stateMutability": "view",
      "type": "function"
    },
    {
      "inputs": [],
      "name": "getBalance",
      "outputs": [
        {
          "internalType": "uint256",
          "name": "",
          "type": "uint256"
        }
      ],
      "stateMutability": "view",
      "type": "function"
    },
    {
      "inputs": [],
      "name": "getRules",
      "outputs": [
        {
          "internalType": "contract IRule[]",
          "name": "",
          "type": "address[]"
        }
      ],
      "stateMutability": "view",
      "type": "function"
    },
    {
      "inputs": [],
      "name": "getStatus",
      "outputs": [
        {
          "internalType": "bool",
          "name": "executed_",
          "type": "bool"
        },
        {
          "internalType": "bool",
          "name": "locked_",
          "type": "bool"
        },
        {
          "internalType": "uint256",
          "name": "timeRemaining",
          "type": "uint256"
        }
      ],
      "stateMutability": "view",
      "type": "function"
    },
    {
      "inputs": [],
      "name": "lastExecutionTime",
      "outputs": [
        {
          "internalType": "uint256",
          "name": "",
          "type": "uint256"
        }
      ],
      "stateMutability": "view",
      "type": "function"
    },
    {
      "inputs": [],
      "name": "locked",
      "outputs": [
        {
          "internalType": "bool",
          "name": "",
          "type": "bool"
        }
      ],
      "stateMutability": "view",
      "type": "function"
    },
    {
      "inputs": [],
      "name": "owner",
      "outputs": [
        {
          "internalType": "address",
          "name": "",
          "type": "address"
        }
      ],
      "stateMutability": "view",
      "type": "function"
    },
    {
      "inputs": [],
      "name": "params",
      "outputs": [
        {
          "internalType": "string",
          "name": "name",
          "type": "string"
        },
        {
          "internalType": "address",
          "name": "inputAsset",
          "type": "address"
        },
        {
          "internalType": "address",
          "name": "targetAsset",
          "type": "address"
        },
        {
          "internalType": "uint256",
          "name": "executionAmount",
          "type": "uint256"
        },
        {
          "internalType": "uint256",
          "name": "lockPeriod",
          "type": "uint256"
        },
        {
          "internalType": "address",
          "name": "beneficiary",
          "type": "address"
        },
        {
          "internalType": "address",
          "name": "router",
          "type": "address"
        },
        {
          "internalType": "address",
          "name": "hub",
          "type": "address"
        },
        {
          "internalType": "uint64",
          "name": "destinationChainSelector",
          "type": "uint64"
        },
        {
          "internalType": "address",
          "name": "linkToken",
          "type": "address"
        }
      ],
      "stateMutability": "view",
      "type": "function"
    },
    {
      "inputs": [],
      "name": "releaseTime",
      "outputs": [
        {
          "internalType": "uint256",
          "name": "",
          "type": "uint256"
        }
      ],
      "stateMutability": "view",
      "type": "function"
    },
    {
      "inputs": [],
      "name": "renounceOwnership",
      "outputs": [],
      "stateMutability": "nonpayable",
      "type": "function"
    },
    {
      "inputs": [],
      "name": "totalDeposited",
      "outputs": [
        {
          "internalType": "uint256",
          "name": "",
          "type": "uint256"
        }
      ],
      "stateMutability": "view",
      "type": "function"
    },
    {
      "inputs": [
        {
          "internalType": "address",
          "name": "newOwner",
          "type": "address"
        }
      ],
      "name": "transferOwnership",
      "outputs": [],
      "stateMutability": "nonpayable",
      "type": "function"
    },
    {
      "inputs": [],
      "name": "withdraw",
      "outputs": [],
      "stateMutability": "nonpayable",
      "type": "function"
    },
    {
      "inputs": [],
      "name": "withdrawLink",
      "outputs": [],
      "stateMutability": "nonpayable",
      "type": "function"
    }
  ],
  "bytecode": "0x60806040523480156200001157600080fd5b50604051620020ec380380620020ec833981016040819052620000349162000633565b60a081015160016000556001600160a01b0381166200006e57604051631e4fbdf760e01b8152600060048201526024015b60405180910390fd5b620000798162000388565b5060208101516001600160a01b0316620000d65760405162461bcd60e51b815260206004820152601360248201527f496e76616c696420696e70757420617373657400000000000000000000000000604482015260640162000065565b60408101516001600160a01b0316620001325760405162461bcd60e51b815260206004820152601460248201527f496e76616c696420746172676574206173736574000000000000000000000000604482015260640162000065565b6000816060015111620001885760405162461bcd60e51b815260206004820152601860248201527f496e76616c696420657865637574696f6e20616d6f756e740000000000000000604482015260640162000065565b60a08101516001600160a01b0316620001e45760405162461bcd60e51b815260206004820152601360248201527f496e76616c69642062656e656669636961727900000000000000000000000000604482015260640162000065565b60c08101516001600160a01b0316620002315760405162461bcd60e51b815260206004820152600e60248201526d24b73b30b634b2103937baba32b960911b604482015260640162000065565b60e08101516001600160a01b03166200027b5760405162461bcd60e51b815260206004820152600b60248201526a24b73b30b634b210343ab160a91b604482015260640162000065565b805181906002908190620002909082620007fd565b506020828101516001830180546001600160a01b039283166001600160a01b0319918216179091556040850151600285018054918416918316919091179055606085015160038501556080850151600485015560a085015160058501805491841691831691909117905560c085015160068501805491841691831691909117905560e08501516007850180546101008801516001600160401b0316600160a01b026001600160e01b0319909116928516929092179190911790556101208501516008850180549190931691161790556101408301518051620003799260098501920190620003da565b505042600f5550620008c99050565b600180546001600160a01b038381166001600160a01b0319831681179093556040519116919082907f8be0079c531659141344cd1fd0a4f28419497f9722a3daafe3b4186f6b6457e090600090a35050565b82805482825590600052602060002090810192821562000432579160200282015b828111156200043257825182546001600160a01b0319166001600160a01b03909116178255602090920191600190910190620003fb565b506200044092915062000444565b5090565b5b8082111562000440576000815560010162000445565b634e487b7160e01b600052604160045260246000fd5b60405161016081016001600160401b03811182821017156200049757620004976200045b565b60405290565b604051601f8201601f191681016001600160401b0381118282101715620004c857620004c86200045b565b604052919050565b600082601f830112620004e257600080fd5b81516001600160401b03811115620004fe57620004fe6200045b565b602062000514601f8301601f191682016200049d565b82815285828487010111156200052957600080fd5b60005b83811015620005495785810183015182820184015282016200052c565b506000928101909101919091529392505050565b6001600160a01b03811681146200057357600080fd5b50565b805162000583816200055d565b919050565b80516001600160401b03811681146200058357600080fd5b600082601f830112620005b257600080fd5b815160206001600160401b03821115620005d057620005d06200045b565b8160051b620005e18282016200049d565b9283528481018201928281019087851115620005fc57600080fd5b83870192505b848310156200062857825162000618816200055d565b8252918301919083019062000602565b979650505050505050565b6000602082840312156200064657600080fd5b81516001600160401b03808211156200065e57600080fd5b9083019061016082860312156200067457600080fd5b6200067e62000471565b8251828111156200068e57600080fd5b6200069c87828601620004d0565b825250620006ad6020840162000576565b6020820152620006c06040840162000576565b60408201526060830151606082015260808301516080820152620006e760a0840162000576565b60a0820152620006fa60c0840162000576565b60c08201526200070d60e0840162000576565b60e08201526101006200072281850162000588565b908201526101206200073684820162000576565b9082015261014083810151838111156200074f57600080fd5b6200075d88828701620005a0565b918301919091525095945050505050565b600181811c908216806200078357607f821691505b602082108103620007a457634e487b7160e01b600052602260045260246000fd5b50919050565b601f821115620007f857600081815260208120601f850160051c81016020861015620007d35750805b601f850160051c820191505b81811015620007f457828155600101620007df565b5050505b505050565b81516001600160401b038111156200081957620008196200045b565b62000831816200082a84546200076e565b84620007aa565b602080601f831160018114620008695760008415620008505750858301515b600019600386901b1c1916600185901b178555620007f4565b600085815260208120601f198616915b828110156200089a5788860151825594840194600190910190840162000879565b5085821015620008b95787850151600019600388901b60f8161c191681555b5050505050600190811b01905550565b61181380620008d96000396000f3fe608060405234801561001057600080fd5b506004361061012c5760003560e01c8063b6b55f25116100ad578063dfd09fa511610071578063dfd09fa51461023d578063e3c4602c14610245578063ecda10f514610258578063f2fde38b14610261578063ff50abdc1461027457600080fd5b8063b6b55f25146101e9578063b91d4001146101fc578063cf30901214610205578063cff0ab9614610217578063db2e21bc1461023557600080fd5b80634e69d560116100f45780634e69d56014610190578063715018a6146101b557806373b379bd146101bd5780638da5cb5b146101c65780638dc654a2146101e157600080fd5b806312065fe01461013157806331a38c891461014c5780633ccfd60b14610169578063446471851461017357806345e2984a1461017b575b600080fd5b61013961027d565b6040519081526020015b60405180910390f35b6010546101599060ff1681565b6040519015158152602001610143565b6101716102ef565b005b61017161058c565b6101836109c3565b6040516101439190611490565b610198610a28565b604080519315158452911515602084015290820152606001610143565b610171610a67565b610139600d5481565b6001546040516001600160a01b039091168152602001610143565b610171610a79565b6101716101f73660046114dd565b610baf565b610139600e5481565b60105461015990610100900460ff1681565b61021f610d3f565b6040516101439a9998979695949392919061153c565b610171610e2e565b61015961105e565b6101716102533660046115c8565b61113e565b610139600f5481565b61017161026f3660046115c8565b6111e5565b610139600c5481565b6003546040516370a0823160e01b81523060048201526000916001600160a01b0316906370a0823190602401602060405180830381865afa1580156102c6573d6000803e3d6000fd5b505050506040513d601f19601f820116820180604052508101906102ea91906115ec565b905090565b6102f7611220565b6102ff61124a565b60105460ff1661034e5760405162461bcd60e51b815260206004820152601560248201527414dd1c985d1959de481b9bdd08195e1958dd5d1959605a1b60448201526064015b60405180910390fd5b600e544210156103985760405162461bcd60e51b8152602060048201526015602482015274131bd8dac81c195c9a5bd9081b9bdd08195b991959605a1b6044820152606401610345565b6003546040516370a0823160e01b81523060048201526001600160a01b039091169060009082906370a0823190602401602060405180830381865afa1580156103e5573d6000803e3d6000fd5b505050506040513d601f19601f8201168201806040525081019061040991906115ec565b9050600081116104525760405162461bcd60e51b81526020600482015260146024820152734e6f2066756e647320746f20776974686472617760601b6044820152606401610345565b816001600160a01b031663a9059cbb6104736001546001600160a01b031690565b6040516001600160e01b031960e084901b1681526001600160a01b039091166004820152602481018490526044016020604051808303816000875af11580156104c0573d6000803e3d6000fd5b505050506040513d601f19601f820116820180604052508101906104e49190611605565b6105245760405162461bcd60e51b815260206004820152601160248201527015da5d1a191c985dd85b0819985a5b1959607a1b6044820152606401610345565b6010805461ff00191690556001546001600160a01b03165b6001600160a01b03167f7084f5476618d8e60b11ef0d7d3f06914655adb8793e28ff7f018d4c76d505d58260405161057691815260200190565b60405180910390a2505061058a6001600055565b565b610594611220565b60105460ff16156105b75760405162461bcd60e51b815260040161034590611627565b6105bf61105e565b6106005760405162461bcd60e51b815260206004820152601260248201527110dbdb991a5d1a5bdb9cc81b9bdd081b595d60721b6044820152606401610345565b600554600c5410156106495760405162461bcd60e51b8152602060048201526012602482015271496e73756666696369656e742066756e647360701b6044820152606401610345565b6010805460ff1916600117905542600d81905560065461066891611674565b600e556010805461ff001916610100179055600554156107015760035460085460055460405163095ea7b360e01b81526001600160a01b039283166004820152602481019190915291169063095ea7b3906044016020604051808303816000875af11580156106db573d6000803e3d6000fd5b505050506040513d601f19601f820116820180604052508101906106ff9190611605565b505b60035460055460009161071f916001600160a01b0390911690611277565b6008546009546040516320487ded60e01b81529293506001600160a01b039091169160009183916320487ded9161076d91600160a01b90910467ffffffffffffffff16908790600401611687565b602060405180830381865afa15801561078a573d6000803e3d6000fd5b505050506040513d601f19601f820116820180604052508101906107ae91906115ec565b600a546040516370a0823160e01b81523060048201529192506001600160a01b031690829082906370a0823190602401602060405180830381865afa1580156107fb573d6000803e3d6000fd5b505050506040513d601f19601f8201168201806040525081019061081f91906115ec565b101561086d5760405162461bcd60e51b815260206004820152601a60248201527f496e73756666696369656e74204c494e4b20666f7220666565730000000000006044820152606401610345565b60085460405163095ea7b360e01b81526001600160a01b039182166004820152602481018490529082169063095ea7b3906044016020604051808303816000875af11580156108c0573d6000803e3d6000fd5b505050506040513d601f19601f820116820180604052508101906108e49190611605565b506009546040516396f4e9f960e01b81526000916001600160a01b038616916396f4e9f99161092a91600160a01b90910467ffffffffffffffff16908990600401611687565b6020604051808303816000875af1158015610949573d6000803e3d6000fd5b505050506040513d601f19601f8201168201806040525081019061096d91906115ec565b60055460408051428152602081019290925281018290529091507fc4c2ff260223f64dc3973e2773122d86e42d047c7c71ff5104f31004f74a5d699060600160405180910390a1505050505061058a6001600055565b60606002600901805480602002602001604051908101604052809291908181526020018280548015610a1e57602002820191906000526020600020905b81546001600160a01b03168152600190910190602001808311610a00575b5050505050905090565b60105460ff808216916101009004166000818015610a475750600e5442105b610a52576000610a60565b42600e54610a609190611761565b9050909192565b610a6f61124a565b61058a600061143e565b610a8161124a565b600a546040516370a0823160e01b81523060048201526001600160a01b039091169060009082906370a0823190602401602060405180830381865afa158015610ace573d6000803e3d6000fd5b505050506040513d601f19601f82011682018060405250810190610af291906115ec565b60405163a9059cbb60e01b8152336004820152602481018290529091506001600160a01b0383169063a9059cbb906044016020604051808303816000875af1158015610b42573d6000803e3d6000fd5b505050506040513d601f19601f82011682018060405250810190610b669190611605565b610bab5760405162461bcd60e51b815260206004820152601660248201527513125392c81dda5d1a191c985dd85b0819985a5b195960521b6044820152606401610345565b5050565b610bb7611220565b60105460ff1615610bda5760405162461bcd60e51b815260040161034590611627565b60008111610c2a5760405162461bcd60e51b815260206004820152601d60248201527f416d6f756e74206d7573742062652067726561746572207468616e20300000006044820152606401610345565b6003546040516323b872dd60e01b8152336004820152306024820152604481018390526001600160a01b039091169081906323b872dd906064016020604051808303816000875af1158015610c83573d6000803e3d6000fd5b505050506040513d601f19601f82011682018060405250810190610ca79190611605565b610ce55760405162461bcd60e51b815260206004820152600f60248201526e151c985b9cd9995c8819985a5b1959608a1b6044820152606401610345565b81600c6000828254610cf79190611674565b909155505060405182815233907f2da466a7b24304f47e87fa2e1e5a81b9831ce54fec19055ce277ca2f39ba42c49060200160405180910390a250610d3c6001600055565b50565b600280548190610d4e90611774565b80601f0160208091040260200160405190810160405280929190818152602001828054610d7a90611774565b8015610dc75780601f10610d9c57610100808354040283529160200191610dc7565b820191906000526020600020905b815481529060010190602001808311610daa57829003601f168201915b50505050600183015460028401546003850154600486015460058701546006880154600789015460089099015497986001600160a01b0396871698958716975093959294918316939083169280821692600160a01b90920467ffffffffffffffff1691168a565b610e36611220565b610e3e61124a565b60105460ff1615610e615760405162461bcd60e51b815260040161034590611627565b600f54610e72906312cc0300611674565b421015610ec15760405162461bcd60e51b815260206004820152601a60248201527f456d657267656e6379206c6f636b206e6f7420657870697265640000000000006044820152606401610345565b6003546040516370a0823160e01b81523060048201526001600160a01b039091169060009082906370a0823190602401602060405180830381865afa158015610f0e573d6000803e3d6000fd5b505050506040513d601f19601f82011682018060405250810190610f3291906115ec565b905060008111610f7b5760405162461bcd60e51b81526020600482015260146024820152734e6f2066756e647320746f20776974686472617760601b6044820152606401610345565b816001600160a01b031663a9059cbb610f9c6001546001600160a01b031690565b6040516001600160e01b031960e084901b1681526001600160a01b039091166004820152602481018490526044016020604051808303816000875af1158015610fe9573d6000803e3d6000fd5b505050506040513d601f19601f8201168201806040525081019061100d9190611605565b61104d5760405162461bcd60e51b815260206004820152601160248201527015da5d1a191c985dd85b0819985a5b1959607a1b6044820152606401610345565b6001546001600160a01b031661053c565b60105460009060ff16156110725750600090565b600b546000036110825750600190565b60005b600b5481101561113657600b8054829081106110a3576110a36117ae565b600091825260209091200154604051631846d2f560e31b81523060048201526001600160a01b039091169063c23697a890602401602060405180830381865afa1580156110f4573d6000803e3d6000fd5b505050506040513d601f19601f820116820180604052508101906111189190611605565b61112457600091505090565b8061112e816117c4565b915050611085565b506001905090565b61114661124a565b6001600160a01b0381166111935760405162461bcd60e51b8152602060048201526014602482015273496e76616c69642072756c65206164647265737360601b6044820152606401610345565b600b80546001810182556000919091527f0175b7a638427703f0dbe7bb9bbf987a2551717b34e79f33b5b1008d1fa01db90180546001600160a01b0319166001600160a01b0392909216919091179055565b6111ed61124a565b6001600160a01b03811661121757604051631e4fbdf760e01b815260006004820152602401610345565b610d3c8161143e565b60026000540361124357604051633ee5aeb560e01b815260040160405180910390fd5b6002600055565b6001546001600160a01b0316331461058a5760405163118cdaa760e01b8152336004820152602401610345565b6112b26040518060a0016040528060608152602001606081526020016060815260200160006001600160a01b03168152602001606081525090565b606082156113395760408051600180825281830190925290816020015b60408051808201909152600080825260208201528152602001906001900390816112cf5790505090506040518060400160405280856001600160a01b031681526020018481525081600081518110611329576113296117ae565b602002602001018190525061137a565b6040805160008082526020820190925290611376565b604080518082019091526000808252602082015281526020019060019003908161134f5790505b5090505b6040805160a0810182526009546001600160a01b0390811660c0808401919091528351808403909101815260e08301845282526007546006548451918316602080840191909152828601919091528451808303860181526060928301865281850152838501869052600a54909216908301528251808201845262030d4090819052835160248082019290925284518082039092018252604401909352820180516001600160e01b03166397a657c960e01b1790529060808201529150505b92915050565b600180546001600160a01b038381166001600160a01b0319831681179093556040519116919082907f8be0079c531659141344cd1fd0a4f28419497f9722a3daafe3b4186f6b6457e090600090a35050565b6020808252825182820181905260009190848201906040850190845b818110156114d15783516001600160a01b0316835292840192918401916001016114ac565b50909695505050505050565b6000602082840312156114ef57600080fd5b5035919050565b6000815180845260005b8181101561151c57602081850181015186830182015201611500565b506000602082860101526020601f19601f83011685010191505092915050565b60006101408083526115508184018e6114f6565b6001600160a01b039c8d1660208501529a8c16604084015250506060810197909752608087019590955292871660a086015290861660c0850152851660e084015267ffffffffffffffff1661010083015290921661012090920191909152919050565b6001600160a01b0381168114610d3c57600080fd5b6000602082840312156115da57600080fd5b81356115e5816115b3565b9392505050565b6000602082840312156115fe57600080fd5b5051919050565b60006020828403121561161757600080fd5b815180151581146115e557600080fd5b60208082526019908201527f537472617465677920616c726561647920657865637574656400000000000000604082015260600190565b634e487b7160e01b600052601160045260246000fd5b808201808211156114385761143861165e565b6000604067ffffffffffffffff8516835260208181850152845160a0838601526116b460e08601826114f6565b905081860151603f19808784030160608801526116d183836114f6565b88860151888203830160808a01528051808352908601945060009350908501905b8084101561172457845180516001600160a01b03168352860151868301529385019360019390930192908601906116f2565b5060608901516001600160a01b031660a08901526080890151888203830160c08a0152955061175381876114f6565b9a9950505050505050505050565b818103818111156114385761143861165e565b600181811c9082168061178857607f821691505b6020821081036117a857634e487b7160e01b600052602260045260246000fd5b50919050565b634e487b7160e01b600052603260045260246000fd5b6000600182016117d6576117d661165e565b506001019056fea264697066735822122014684d0f037a915a10759261242589bd361193a843a0cb763c540b7d0e56ba2364736f6c63430008140033",
  "linkReferences": {},
  "deployedLinkReferences": {}
}