{
  "_format": "hh-sol-artifact-1",
  "contractName": "StrategyFactory",
  "sourceName": "contracts/StrategyFactory.sol",
  "abi": [
    {
      "anonymous": false,
      "inputs": [
        {
          "indexed": true,
          "internalType": "address",
          "name": "strategyAddress",
          "type": "address"
        },
        {
          "indexed": true,
          "internalType": "address",
          "name": "creator",
          "type": "address"
        },
        {
          "indexed": true,
          "internalType": "address",
          "name": "beneficiary",
          "type": "address"
        }
      ],
      "name": "StrategyCreated",
      "type": "event"
    },
    {
      "anonymous": false,
      "inputs": [
        {
          "indexed": true,
          "internalType": "address",
          "name": "strategyAddress",
          "type": "address"
        },
        {
          "indexed": false,
          "internalType": "uint256",
          "name": "timestamp",
          "type": "uint256"
        }
      ],
      "name": "StrategyExecuted",
      "type": "event"
    },
    {
      "inputs": [
        {
          "components": [
            {
              "internalType": "string",
              "name": "name",
              "type": "string"
            },
            {
              "internalType": "address",
              "name": "inputAsset",
              "type": "address"
            },
            {
              "internalType": "address",
              "name": "targetAsset",
              "type": "address"
            },
            {
              "internalType": "uint256",
              "name": "executionAmount",
              "type": "uint256"
            },
            {
              "internalType": "uint256",
              "name": "lockPeriod",
              "type": "uint256"
            },
            {
              "internalType": "address",
              "name": "beneficiary",
              "type": "address"
            },
            {
              "internalType": "address",
              "name": "router",
              "type": "address"
            },
            {
              "internalType": "address",
              "name": "hub",
              "type": "address"
            },
            {
              "internalType": "uint64",
              "name": "destinationChainSelector",
              "type": "uint64"
            },
            {
              "internalType": "address",
              "name": "linkToken",
              "type": "address"
            },
            {
              "internalType": "contract IRule[]",
              "name": "rules",
              "type": "address[]"
            }
          ],
          "internalType": "struct StrategyVault.StrategyParams",
          "name": "params",
          "type": "tuple"
        }
      ],
      "name": "createStrategy",
      "outputs": [
        {
          "internalType": "address",
          "name": "",
          "type": "address"
        }
      ],
      "stateMutability": "nonpayable",
      "type": "function"
    },
    {
      "inputs": [
        {
          "internalType": "uint256",
          "name": "",
          "type": "uint256"
        }
      ],
      "name": "deployedStrategies",
      "outputs": [
        {
          "internalType": "address",
          "name": "",
          "type": "address"
        }
      ],
      "stateMutability": "view",
      "type": "function"
    },
    {
      "inputs": [],
      "name": "getAllStrategies",
      "outputs": [
        {
          "internalType": "address[]",
          "name": "",
          "type": "address[]"
        }
      ],
      "stateMutability": "view",
      "type": "function"
    },
    {
      "inputs": [
        {
          "internalType": "uint256",
          "name": "index",
          "type": "uint256"
        }
      ],
      "name": "getStrategy",
      "outputs": [
        {
          "internalType": "address",
          "name": "",
          "type": "address"
        }
      ],
      "stateMutability": "view",
      "type": "function"
    },
    {
      "inputs": [],
      "name": "getStrategyCount",
      "outputs": [
        {
          "internalType": "uint256",
          "name": "",
          "type": "uint256"
        }
      ],
      "stateMutability": "view",
      "type": "function"
    }
  ],
  "bytecode": "0x608060405234801561001057600080fd5b50612778806100206000396000f3fe60806040523480156200001157600080fd5b50600436106200005e5760003560e01c806331e19cfa146200006357806356f978d91462000079578063b6c9368114620000a9578063c3b2886414620000c0578063cfc0cc3414620000d9575b600080fd5b6000546040519081526020015b60405180910390f35b620000906200008a36600462000496565b620000f0565b6040516001600160a01b03909116815260200162000070565b62000090620000ba366004620005d2565b620001b5565b620000ca620001e0565b604051620000709190620005ec565b62000090620000ea366004620005d2565b62000244565b600080826040516200010290620002c2565b6200010e9190620006c9565b604051809103906000f0801580156200012b573d6000803e3d6000fd5b50600080546001810182558180527f290decd9548b62a8d60345a988386fc84ba6bc95484008f6362f93160ef3e5630180546001600160a01b0319166001600160a01b0384811691821790925560a0870151604051949550859492169233927f27b29fd8831617ae32cc016e8e7b6f137c66cffd9bd505cd913acc6c0eeb84499190a49392505050565b60008181548110620001c657600080fd5b6000918252602090912001546001600160a01b0316905081565b606060008054806020026020016040519081016040528092919081815260200182805480156200023a57602002820191906000526020600020905b81546001600160a01b031681526001909101906020018083116200021b575b5050505050905090565b600080548210620002915760405162461bcd60e51b8152602060048201526013602482015272496e646578206f7574206f6620626f756e647360681b604482015260640160405180910390fd5b60008281548110620002a757620002a7620007e0565b6000918252602090912001546001600160a01b031692915050565b611f4c80620007f783390190565b634e487b7160e01b600052604160045260246000fd5b604051610160810167ffffffffffffffff811182821017156200030d576200030d620002d0565b60405290565b604051601f8201601f1916810167ffffffffffffffff811182821017156200033f576200033f620002d0565b604052919050565b600082601f8301126200035957600080fd5b813567ffffffffffffffff811115620003765762000376620002d0565b6200038b601f8201601f191660200162000313565b818152846020838601011115620003a157600080fd5b816020850160208301376000918101602001919091529392505050565b6001600160a01b0381168114620003d457600080fd5b50565b8035620003e481620003be565b919050565b803567ffffffffffffffff81168114620003e457600080fd5b600082601f8301126200041457600080fd5b8135602067ffffffffffffffff821115620004335762000433620002d0565b8160051b6200044482820162000313565b92835284810182019282810190878511156200045f57600080fd5b83870192505b848310156200048b5782356200047b81620003be565b8252918301919083019062000465565b979650505050505050565b600060208284031215620004a957600080fd5b813567ffffffffffffffff80821115620004c257600080fd5b908301906101608286031215620004d857600080fd5b620004e2620002e6565b823582811115620004f257600080fd5b620005008782860162000347565b8252506200051160208401620003d7565b60208201526200052460408401620003d7565b604082015260608301356060820152608083013560808201526200054b60a08401620003d7565b60a08201526200055e60c08401620003d7565b60c08201526200057160e08401620003d7565b60e082015261010062000586818501620003e9565b908201526101206200059a848201620003d7565b908201526101408381013583811115620005b357600080fd5b620005c18882870162000402565b918301919091525095945050505050565b600060208284031215620005e557600080fd5b5035919050565b6020808252825182820181905260009190848201906040850190845b818110156200062f5783516001600160a01b03168352928401929184019160010162000608565b50909695505050505050565b6000815180845260005b81811015620006635760208185018101518683018201520162000645565b506000602082860101526020601f19601f83011685010191505092915050565b600081518084526020808501945080840160005b83811015620006be5781516001600160a01b03168752958201959082019060010162000697565b509495945050505050565b6020815260008251610160806020850152620006ea6101808501836200063b565b915060208501516200070760408601826001600160a01b03169052565b5060408501516001600160a01b03811660608601525060608501516080850152608085015160a085015260a08501516200074c60c08601826001600160a01b03169052565b5060c08501516001600160a01b03811660e08601525060e08501516101006200077f818701836001600160a01b03169052565b86015190506101206200079d8682018367ffffffffffffffff169052565b8601519050610140620007ba868201836001600160a01b03169052565b860151858403601f1901838701529050620007d6838262000683565b9695505050505050565b634e487b7160e01b600052603260045260246000fdfe60806040523480156200001157600080fd5b5060405162001f4c38038062001f4c833981016040819052620000349162000633565b60a081015160016000556001600160a01b0381166200006e57604051631e4fbdf760e01b8152600060048201526024015b60405180910390fd5b620000798162000388565b5060208101516001600160a01b0316620000d65760405162461bcd60e51b815260206004820152601360248201527f496e76616c696420696e70757420617373657400000000000000000000000000604482015260640162000065565b60408101516001600160a01b0316620001325760405162461bcd60e51b815260206004820152601460248201527f496e76616c696420746172676574206173736574000000000000000000000000604482015260640162000065565b6000816060015111620001885760405162461bcd60e51b815260206004820152601860248201527f496e76616c696420657865637574696f6e20616d6f756e740000000000000000604482015260640162000065565b60a08101516001600160a01b0316620001e45760405162461bcd60e51b815260206004820152601360248201527f496e76616c69642062656e656669636961727900000000000000000000000000604482015260640162000065565b60c08101516001600160a01b0316620002315760405162461bcd60e51b815260206004820152600e60248201526d24b73b30b634b2103937baba32b960911b604482015260640162000065565b60e08101516001600160a01b03166200027b5760405162461bcd60e51b815260206004820152600b60248201526a24b73b30b634b210343ab160a91b604482015260640162000065565b805181906002908190620002909082620007fd565b506020828101516001830180546001600160a01b039283166001600160a01b0319918216179091556040850151600285018054918416918316919091179055606085015160038501556080850151600485015560a085015160058501805491841691831691909117905560c085015160068501805491841691831691909117905560e08501516007850180546101008801516001600160401b0316600160a01b026001600160e01b0319909116928516929092179190911790556101208501516008850180549190931691161790556101408301518051620003799260098501920190620003da565b505042600f5550620008c99050565b600180546001600160a01b038381166001600160a01b0319831681179093556040519116919082907f8be0079c531659141344cd1fd0a4f28419497f9722a3daafe3b4186f6b6457e090600090a35050565b82805482825590600052602060002090810192821562000432579160200282015b828111156200043257825182546001600160a01b0319166001600160a01b03909116178255602090920191600190910190620003fb565b506200044092915062000444565b5090565b5b8082111562000440576000815560010162000445565b634e487b7160e01b600052604160045260246000fd5b60405161016081016001600160401b03811182821017156200049757620004976200045b565b60405290565b604051601f8201601f191681016001600160401b0381118282101715620004c857620004c86200045b565b604052919050565b600082601f830112620004e257600080fd5b81516001600160401b03811115620004fe57620004fe6200045b565b602062000514601f8301601f191682016200049d565b82815285828487010111156200052957600080fd5b60005b83811015620005495785810183015182820184015282016200052c565b506000928101909101919091529392505050565b6001600160a01b03811681146200057357600080fd5b50565b805162000583816200055d565b919050565b80516001600160401b03811681146200058357600080fd5b600082601f830112620005b257600080fd5b815160206001600160401b03821115620005d057620005d06200045b565b8160051b620005e18282016200049d565b9283528481018201928281019087851115620005fc57600080fd5b83870192505b848310156200062857825162000618816200055d565b8252918301919083019062000602565b979650505050505050565b6000602082840312156200064657600080fd5b81516001600160401b03808211156200065e57600080fd5b9083019061016082860312156200067457600080fd5b6200067e62000471565b8251828111156200068e57600080fd5b6200069c87828601620004d0565b825250620006ad6020840162000576565b6020820152620006c06040840162000576565b60408201526060830151606082015260808301516080820152620006e760a0840162000576565b60a0820152620006fa60c0840162000576565b60c08201526200070d60e0840162000576565b60e08201526101006200072281850162000588565b908201526101206200073684820162000576565b9082015261014083810151838111156200074f57600080fd5b6200075d88828701620005a0565b918301919091525095945050505050565b600181811c908216806200078357607f821691505b602082108103620007a457634e487b7160e01b600052602260045260246000fd5b50919050565b601f821115620007f857600081815260208120601f850160051c81016020861015620007d35750805b601f850160051c820191505b81811015620007f457828155600101620007df565b5050505b505050565b81516001600160401b038111156200081957620008196200045b565b62000831816200082a84546200076e565b84620007aa565b602080601f831160018114620008695760008415620008505750858301515b600019600386901b1c1916600185901b178555620007f4565b600085815260208120601f198616915b828110156200089a5788860151825594840194600190910190840162000879565b5085821015620008b95787850151600019600388901b60f8161c191681555b5050505050600190811b01905550565b61167380620008d96000396000f3fe608060405234801561001057600080fd5b50600436106101165760003560e01c8063b6b55f25116100a2578063db2e21bc11610071578063db2e21bc1461020a578063dfd09fa514610212578063ecda10f51461021a578063f2fde38b14610223578063ff50abdc1461023657600080fd5b8063b6b55f25146101be578063b91d4001146101d1578063cf309012146101da578063cff0ab96146101ec57600080fd5b80634e69d560116100e95780634e69d56014610165578063715018a61461018a57806373b379bd146101925780638da5cb5b1461019b5780638dc654a2146101b657600080fd5b806312065fe01461011b57806331a38c89146101365780633ccfd60b14610153578063446471851461015d575b600080fd5b61012361023f565b6040519081526020015b60405180910390f35b6010546101439060ff1681565b604051901515815260200161012d565b61015b6102b1565b005b61015b61054e565b61016d610985565b60408051931515845291151560208401529082015260600161012d565b61015b6109c4565b610123600d5481565b6001546040516001600160a01b03909116815260200161012d565b61015b6109d6565b61015b6101cc366004611346565b610b0c565b610123600e5481565b60105461014390610100900460ff1681565b6101f4610c9c565b60405161012d9a999897969594939291906113a5565b61015b610d8b565b610143610fbb565b610123600f5481565b61015b61023136600461141c565b61109b565b610123600c5481565b6003546040516370a0823160e01b81523060048201526000916001600160a01b0316906370a0823190602401602060405180830381865afa158015610288573d6000803e3d6000fd5b505050506040513d601f19601f820116820180604052508101906102ac919061144c565b905090565b6102b96110d6565b6102c1611100565b60105460ff166103105760405162461bcd60e51b815260206004820152601560248201527414dd1c985d1959de481b9bdd08195e1958dd5d1959605a1b60448201526064015b60405180910390fd5b600e5442101561035a5760405162461bcd60e51b8152602060048201526015602482015274131bd8dac81c195c9a5bd9081b9bdd08195b991959605a1b6044820152606401610307565b6003546040516370a0823160e01b81523060048201526001600160a01b039091169060009082906370a0823190602401602060405180830381865afa1580156103a7573d6000803e3d6000fd5b505050506040513d601f19601f820116820180604052508101906103cb919061144c565b9050600081116104145760405162461bcd60e51b81526020600482015260146024820152734e6f2066756e647320746f20776974686472617760601b6044820152606401610307565b816001600160a01b031663a9059cbb6104356001546001600160a01b031690565b6040516001600160e01b031960e084901b1681526001600160a01b039091166004820152602481018490526044016020604051808303816000875af1158015610482573d6000803e3d6000fd5b505050506040513d601f19601f820116820180604052508101906104a69190611465565b6104e65760405162461bcd60e51b815260206004820152601160248201527015da5d1a191c985dd85b0819985a5b1959607a1b6044820152606401610307565b6010805461ff00191690556001546001600160a01b03165b6001600160a01b03167f7084f5476618d8e60b11ef0d7d3f06914655adb8793e28ff7f018d4c76d505d58260405161053891815260200190565b60405180910390a2505061054c6001600055565b565b6105566110d6565b60105460ff16156105795760405162461bcd60e51b815260040161030790611487565b610581610fbb565b6105c25760405162461bcd60e51b815260206004820152601260248201527110dbdb991a5d1a5bdb9cc81b9bdd081b595d60721b6044820152606401610307565b600554600c54101561060b5760405162461bcd60e51b8152602060048201526012602482015271496e73756666696369656e742066756e647360701b6044820152606401610307565b6010805460ff1916600117905542600d81905560065461062a916114d4565b600e556010805461ff001916610100179055600554156106c35760035460085460055460405163095ea7b360e01b81526001600160a01b039283166004820152602481019190915291169063095ea7b3906044016020604051808303816000875af115801561069d573d6000803e3d6000fd5b505050506040513d601f19601f820116820180604052508101906106c19190611465565b505b6003546005546000916106e1916001600160a01b039091169061112d565b6008546009546040516320487ded60e01b81529293506001600160a01b039091169160009183916320487ded9161072f91600160a01b90910467ffffffffffffffff169087906004016114e7565b602060405180830381865afa15801561074c573d6000803e3d6000fd5b505050506040513d601f19601f82011682018060405250810190610770919061144c565b600a546040516370a0823160e01b81523060048201529192506001600160a01b031690829082906370a0823190602401602060405180830381865afa1580156107bd573d6000803e3d6000fd5b505050506040513d601f19601f820116820180604052508101906107e1919061144c565b101561082f5760405162461bcd60e51b815260206004820152601a60248201527f496e73756666696369656e74204c494e4b20666f7220666565730000000000006044820152606401610307565b60085460405163095ea7b360e01b81526001600160a01b039182166004820152602481018490529082169063095ea7b3906044016020604051808303816000875af1158015610882573d6000803e3d6000fd5b505050506040513d601f19601f820116820180604052508101906108a69190611465565b506009546040516396f4e9f960e01b81526000916001600160a01b038616916396f4e9f9916108ec91600160a01b90910467ffffffffffffffff169089906004016114e7565b6020604051808303816000875af115801561090b573d6000803e3d6000fd5b505050506040513d601f19601f8201168201806040525081019061092f919061144c565b60055460408051428152602081019290925281018290529091507fc4c2ff260223f64dc3973e2773122d86e42d047c7c71ff5104f31004f74a5d699060600160405180910390a1505050505061054c6001600055565b60105460ff8082169161010090041660008180156109a45750600e5442105b6109af5760006109bd565b42600e546109bd91906115c1565b9050909192565b6109cc611100565b61054c60006112f4565b6109de611100565b600a546040516370a0823160e01b81523060048201526001600160a01b039091169060009082906370a0823190602401602060405180830381865afa158015610a2b573d6000803e3d6000fd5b505050506040513d601f19601f82011682018060405250810190610a4f919061144c565b60405163a9059cbb60e01b8152336004820152602481018290529091506001600160a01b0383169063a9059cbb906044016020604051808303816000875af1158015610a9f573d6000803e3d6000fd5b505050506040513d601f19601f82011682018060405250810190610ac39190611465565b610b085760405162461bcd60e51b815260206004820152601660248201527513125392c81dda5d1a191c985dd85b0819985a5b195960521b6044820152606401610307565b5050565b610b146110d6565b60105460ff1615610b375760405162461bcd60e51b815260040161030790611487565b60008111610b875760405162461bcd60e51b815260206004820152601d60248201527f416d6f756e74206d7573742062652067726561746572207468616e20300000006044820152606401610307565b6003546040516323b872dd60e01b8152336004820152306024820152604481018390526001600160a01b039091169081906323b872dd906064016020604051808303816000875af1158015610be0573d6000803e3d6000fd5b505050506040513d601f19601f82011682018060405250810190610c049190611465565b610c425760405162461bcd60e51b815260206004820152600f60248201526e151c985b9cd9995c8819985a5b1959608a1b6044820152606401610307565b81600c6000828254610c5491906114d4565b909155505060405182815233907f2da466a7b24304f47e87fa2e1e5a81b9831ce54fec19055ce277ca2f39ba42c49060200160405180910390a250610c996001600055565b50565b600280548190610cab906115d4565b80601f0160208091040260200160405190810160405280929190818152602001828054610cd7906115d4565b8015610d245780601f10610cf957610100808354040283529160200191610d24565b820191906000526020600020905b815481529060010190602001808311610d0757829003601f168201915b50505050600183015460028401546003850154600486015460058701546006880154600789015460089099015497986001600160a01b0396871698958716975093959294918316939083169280821692600160a01b90920467ffffffffffffffff1691168a565b610d936110d6565b610d9b611100565b60105460ff1615610dbe5760405162461bcd60e51b815260040161030790611487565b600f54610dcf906312cc03006114d4565b421015610e1e5760405162461bcd60e51b815260206004820152601a60248201527f456d657267656e6379206c6f636b206e6f7420657870697265640000000000006044820152606401610307565b6003546040516370a0823160e01b81523060048201526001600160a01b039091169060009082906370a0823190602401602060405180830381865afa158015610e6b573d6000803e3d6000fd5b505050506040513d601f19601f82011682018060405250810190610e8f919061144c565b905060008111610ed85760405162461bcd60e51b81526020600482015260146024820152734e6f2066756e647320746f20776974686472617760601b6044820152606401610307565b816001600160a01b031663a9059cbb610ef96001546001600160a01b031690565b6040516001600160e01b031960e084901b1681526001600160a01b039091166004820152602481018490526044016020604051808303816000875af1158015610f46573d6000803e3d6000fd5b505050506040513d601f19601f82011682018060405250810190610f6a9190611465565b610faa5760405162461bcd60e51b815260206004820152601160248201527015da5d1a191c985dd85b0819985a5b1959607a1b6044820152606401610307565b6001546001600160a01b03166104fe565b60105460009060ff1615610fcf5750600090565b600b54600003610fdf5750600190565b60005b600b5481101561109357600b8054829081106110005761100061160e565b600091825260209091200154604051631846d2f560e31b81523060048201526001600160a01b039091169063c23697a890602401602060405180830381865afa158015611051573d6000803e3d6000fd5b505050506040513d601f19601f820116820180604052508101906110759190611465565b61108157600091505090565b8061108b81611624565b915050610fe2565b506001905090565b6110a3611100565b6001600160a01b0381166110cd57604051631e4fbdf760e01b815260006004820152602401610307565b610c99816112f4565b6002600054036110f957604051633ee5aeb560e01b815260040160405180910390fd5b6002600055565b6001546001600160a01b0316331461054c5760405163118cdaa760e01b8152336004820152602401610307565b6111686040518060a0016040528060608152602001606081526020016060815260200160006001600160a01b03168152602001606081525090565b606082156111ef5760408051600180825281830190925290816020015b60408051808201909152600080825260208201528152602001906001900390816111855790505090506040518060400160405280856001600160a01b0316815260200184815250816000815181106111df576111df61160e565b6020026020010181905250611230565b604080516000808252602082019092529061122c565b60408051808201909152600080825260208201528152602001906001900390816112055790505b5090505b6040805160a0810182526009546001600160a01b0390811660c0808401919091528351808403909101815260e08301845282526007546006548451918316602080840191909152828601919091528451808303860181526060928301865281850152838501869052600a54909216908301528251808201845262030d4090819052835160248082019290925284518082039092018252604401909352820180516001600160e01b03166397a657c960e01b1790529060808201529150505b92915050565b600180546001600160a01b038381166001600160a01b0319831681179093556040519116919082907f8be0079c531659141344cd1fd0a4f28419497f9722a3daafe3b4186f6b6457e090600090a35050565b60006020828403121561135857600080fd5b5035919050565b6000815180845260005b8181101561138557602081850181015186830182015201611369565b506000602082860101526020601f19601f83011685010191505092915050565b60006101408083526113b98184018e61135f565b6001600160a01b039c8d1660208501529a8c16604084015250506060810197909752608087019590955292871660a086015290861660c0850152851660e084015267ffffffffffffffff1661010083015290921661012090920191909152919050565b60006020828403121561142e57600080fd5b81356001600160a01b038116811461144557600080fd5b9392505050565b60006020828403121561145e57600080fd5b5051919050565b60006020828403121561147757600080fd5b8151801515811461144557600080fd5b60208082526019908201527f537472617465677920616c726561647920657865637574656400000000000000604082015260600190565b634e487b7160e01b600052601160045260246000fd5b808201808211156112ee576112ee6114be565b6000604067ffffffffffffffff8516835260208181850152845160a08386015261151460e086018261135f565b905081860151603f1980878403016060880152611531838361135f565b88860151888203830160808a01528051808352908601945060009350908501905b8084101561158457845180516001600160a01b0316835286015186830152938501936001939093019290860190611552565b5060608901516001600160a01b031660a08901526080890151888203830160c08a015295506115b3818761135f565b9a9950505050505050505050565b818103818111156112ee576112ee6114be565b600181811c908216806115e857607f821691505b60208210810361160857634e487b7160e01b600052602260045260246000fd5b50919050565b634e487b7160e01b600052603260045260246000fd5b600060018201611636576116366114be565b506001019056fea26469706673582212209305ee9cd8b0bea4bb3c5ee6c6257b7fc8c7c7dde33b1dde514fda312f677d0964736f6c63430008140033a26469706673582212205270551011ee7f7833375fb00409d3af85ed13d8935fa51116e73046fe3fe04964736f6c63430008140033",
  "linkReferences": {},
  "deployedLinkReferences": {}
}