{
  "_format": "hh-sol-artifact-1",
  "contractName": "StrategyVaultImplementation",
  "sourceName": "contracts/StrategyVaultImplementation.sol",
  "abi": [
    {
      "inputs": [
        {
          "internalType": "address",
          "name": "target",
          "type": "address"
        }
      ],
      "name": "AddressEmptyCode",
      "type": "error"
    },
    {
      "inputs": [
        {
          "internalType": "address",
          "name": "account",
          "type": "address"
        }
      ],
      "name": "AddressInsufficientBalance",
      "type": "error"
    },
    {
      "inputs": [],
      "name": "FailedInnerCall",
      "type": "error"
    },
    {
      "inputs": [],
      "name": "ReentrancyGuardReentrantCall",
      "type": "error"
    },
    {
      "inputs": [
        {
          "internalType": "address",
          "name": "token",
          "type": "address"
        }
      ],
      "name": "SafeERC20FailedOperation",
      "type": "error"
    },
    {
      "anonymous": false,
      "inputs": [
        {
          "indexed": true,
          "internalType": "address",
          "name": "depositor",
          "type": "address"
        },
        {
          "indexed": false,
          "internalType": "uint256",
          "name": "amount",
          "type": "uint256"
        },
        {
          "indexed": false,
          "internalType": "uint256",
          "name": "fee",
          "type": "uint256"
        }
      ],
      "name": "Deposited",
      "type": "event"
    },
    {
      "anonymous": false,
      "inputs": [
        {
          "indexed": true,
          "internalType": "address",
          "name": "beneficiary",
          "type": "address"
        },
        {
          "indexed": false,
          "internalType": "uint256",
          "name": "amount",
          "type": "uint256"
        }
      ],
      "name": "FailsafeWithdrawn",
      "type": "event"
    },
    {
      "anonymous": false,
      "inputs": [
        {
          "indexed": true,
          "internalType": "address",
          "name": "rule",
          "type": "address"
        },
        {
          "indexed": false,
          "internalType": "uint256",
          "name": "index",
          "type": "uint256"
        }
      ],
      "name": "RuleAdded",
      "type": "event"
    },
    {
      "anonymous": false,
      "inputs": [
        {
          "indexed": true,
          "internalType": "uint256",
          "name": "ruleIndex",
          "type": "uint256"
        },
        {
          "indexed": true,
          "internalType": "address",
          "name": "rule",
          "type": "address"
        },
        {
          "indexed": false,
          "internalType": "bool",
          "name": "success",
          "type": "bool"
        }
      ],
      "name": "RuleExecuted",
      "type": "event"
    },
    {
      "anonymous": false,
      "inputs": [
        {
          "indexed": false,
          "internalType": "uint256",
          "name": "timestamp",
          "type": "uint256"
        }
      ],
      "name": "RuleSequenceCompleted",
      "type": "event"
    },
    {
      "anonymous": false,
      "inputs": [
        {
          "indexed": true,
          "internalType": "address",
          "name": "beneficiary",
          "type": "address"
        },
        {
          "indexed": false,
          "internalType": "uint256",
          "name": "amount",
          "type": "uint256"
        },
        {
          "indexed": false,
          "internalType": "uint256",
          "name": "successFee",
          "type": "uint256"
        }
      ],
      "name": "Withdrawn",
      "type": "event"
    },
    {
      "inputs": [
        {
          "internalType": "contract IStrategyRule",
          "name": "rule",
          "type": "address"
        }
      ],
      "name": "addRule",
      "outputs": [],
      "stateMutability": "nonpayable",
      "type": "function"
    },
    {
      "inputs": [],
      "name": "checkCurrentRule",
      "outputs": [
        {
          "internalType": "bool",
          "name": "",
          "type": "bool"
        }
      ],
      "stateMutability": "view",
      "type": "function"
    },
    {
      "inputs": [
        {
          "internalType": "uint256",
          "name": "amount",
          "type": "uint256"
        }
      ],
      "name": "deposit",
      "outputs": [],
      "stateMutability": "nonpayable",
      "type": "function"
    },
    {
      "inputs": [],
      "name": "depositFeeBps",
      "outputs": [
        {
          "internalType": "uint256",
          "name": "",
          "type": "uint256"
        }
      ],
      "stateMutability": "view",
      "type": "function"
    },
    {
      "inputs": [],
      "name": "executeCurrentRule",
      "outputs": [],
      "stateMutability": "nonpayable",
      "type": "function"
    },
    {
      "inputs": [],
      "name": "factory",
      "outputs": [
        {
          "internalType": "address",
          "name": "",
          "type": "address"
        }
      ],
      "stateMutability": "view",
      "type": "function"
    },
    {
      "inputs": [],
      "name": "getBalance",
      "outputs": [
        {
          "internalType": "uint256",
          "name": "",
          "type": "uint256"
        }
      ],
      "stateMutability": "view",
      "type": "function"
    },
    {
      "inputs": [],
      "name": "getProfitDetails",
      "outputs": [
        {
          "internalType": "uint256",
          "name": "totalDeposited",
          "type": "uint256"
        },
        {
          "internalType": "uint256",
          "name": "currentBalance",
          "type": "uint256"
        },
        {
          "internalType": "uint256",
          "name": "profit",
          "type": "uint256"
        }
      ],
      "stateMutability": "view",
      "type": "function"
    },
    {
      "inputs": [],
      "name": "getRules",
      "outputs": [
        {
          "internalType": "contract IStrategyRule[]",
          "name": "",
          "type": "address[]"
        }
      ],
      "stateMutability": "view",
      "type": "function"
    },
    {
      "inputs": [],
      "name": "getStatus",
      "outputs": [
        {
          "internalType": "bool",
          "name": "isLocked",
          "type": "bool"
        },
        {
          "internalType": "uint256",
          "name": "currentRuleIndex",
          "type": "uint256"
        },
        {
          "internalType": "uint256",
          "name": "timeUntilFailsafe",
          "type": "uint256"
        },
        {
          "internalType": "address",
          "name": "currentToken",
          "type": "address"
        },
        {
          "internalType": "bool",
          "name": "completedSuccessfully",
          "type": "bool"
        }
      ],
      "stateMutability": "view",
      "type": "function"
    },
    {
      "inputs": [
        {
          "internalType": "address",
          "name": "token",
          "type": "address"
        }
      ],
      "name": "getTokenBalance",
      "outputs": [
        {
          "internalType": "uint256",
          "name": "",
          "type": "uint256"
        }
      ],
      "stateMutability": "view",
      "type": "function"
    },
    {
      "inputs": [
        {
          "internalType": "address",
          "name": "_owner",
          "type": "address"
        },
        {
          "internalType": "address",
          "name": "depositToken",
          "type": "address"
        },
        {
          "internalType": "uint256",
          "name": "failsafeDuration",
          "type": "uint256"
        },
        {
          "internalType": "address",
          "name": "_factory",
          "type": "address"
        },
        {
          "internalType": "address",
          "name": "_treasury",
          "type": "address"
        },
        {
          "internalType": "uint256",
          "name": "_depositFeeBps",
          "type": "uint256"
        },
        {
          "internalType": "uint256",
          "name": "_successFeeBps",
          "type": "uint256"
        },
        {
          "internalType": "contract IStrategyRule[]",
          "name": "initialRules",
          "type": "address[]"
        }
      ],
      "name": "initialize",
      "outputs": [],
      "stateMutability": "nonpayable",
      "type": "function"
    },
    {
      "inputs": [],
      "name": "owner",
      "outputs": [
        {
          "internalType": "address",
          "name": "",
          "type": "address"
        }
      ],
      "stateMutability": "view",
      "type": "function"
    },
    {
      "inputs": [],
      "name": "params",
      "outputs": [
        {
          "internalType": "address",
          "name": "depositToken",
          "type": "address"
        },
        {
          "internalType": "uint256",
          "name": "failsafeDuration",
          "type": "uint256"
        }
      ],
      "stateMutability": "view",
      "type": "function"
    },
    {
      "inputs": [],
      "name": "state",
      "outputs": [
        {
          "internalType": "bool",
          "name": "isLocked",
          "type": "bool"
        },
        {
          "internalType": "uint256",
          "name": "currentRuleIndex",
          "type": "uint256"
        },
        {
          "internalType": "uint256",
          "name": "totalDeposited",
          "type": "uint256"
        },
        {
          "internalType": "uint256",
          "name": "totalDepositFees",
          "type": "uint256"
        },
        {
          "internalType": "uint256",
          "name": "unlockTimestamp",
          "type": "uint256"
        },
        {
          "internalType": "address",
          "name": "currentToken",
          "type": "address"
        },
        {
          "internalType": "bool",
          "name": "completedSuccessfully",
          "type": "bool"
        }
      ],
      "stateMutability": "view",
      "type": "function"
    },
    {
      "inputs": [],
      "name": "successFeeBps",
      "outputs": [
        {
          "internalType": "uint256",
          "name": "",
          "type": "uint256"
        }
      ],
      "stateMutability": "view",
      "type": "function"
    },
    {
      "inputs": [
        {
          "internalType": "address",
          "name": "token",
          "type": "address"
        },
        {
          "internalType": "address",
          "name": "to",
          "type": "address"
        },
        {
          "internalType": "uint256",
          "name": "amount",
          "type": "uint256"
        }
      ],
      "name": "transferToken",
      "outputs": [
        {
          "internalType": "bool",
          "name": "",
          "type": "bool"
        }
      ],
      "stateMutability": "nonpayable",
      "type": "function"
    },
    {
      "inputs": [],
      "name": "treasury",
      "outputs": [
        {
          "internalType": "address",
          "name": "",
          "type": "address"
        }
      ],
      "stateMutability": "view",
      "type": "function"
    },
    {
      "inputs": [],
      "name": "withdraw",
      "outputs": [],
      "stateMutability": "nonpayable",
      "type": "function"
    },
    {
      "inputs": [],
      "name": "withdrawViaFailsafe",
      "outputs": [],
      "stateMutability": "nonpayable",
      "type": "function"
    }
  ],
  "bytecode": "0x608060405234801561001057600080fd5b506001600055611c4d806100256000396000f3fe608060405234801561001057600080fd5b506004361061012c5760003560e01c80637561841a116100ad578063c19d93fb11610071578063c19d93fb1461027c578063c45a0155146102f5578063cff0ab9614610308578063e3c4602c1461033e578063f5537ede1461035157600080fd5b80637561841a1461023c5780638da5cb5b146102455780639d55012e14610258578063ab87982714610260578063b6b55f251461026957600080fd5b80633fddab93116100f45780633fddab931461018957806345e2984a146101ac57806346fc3f85146101c15780634e69d560146101d457806361d027b31461021157600080fd5b806312065fe01461013157806316fab2eb1461014c5780631b5ad80f146101645780633aecd0e31461016e5780633ccfd60b14610181575b600080fd5b610139610364565b6040519081526020015b60405180910390f35b6101546103d6565b6040519015158152602001610143565b61016c610481565b005b61013961017c366004611871565b61082b565b61016c61089c565b610191610b24565b60408051938452602084019290925290820152606001610143565b6101b4610bbb565b604051610143919061188e565b61016c6101cf366004611901565b610c20565b6101dc611062565b6040805195151586526020860194909452928401919091526001600160a01b031660608301521515608082015260a001610143565b600b54610224906001600160a01b031681565b6040516001600160a01b039091168152602001610143565b610139600e5481565b600c54610224906001600160a01b031681565b61016c6110b9565b610139600d5481565b61016c610277366004611a30565b6112bb565b6001546002546003546004546005546006546102b39560ff90811695949392916001600160a01b03811691600160a01b9091041687565b604080519715158852602088019690965294860193909352606085019190915260808401526001600160a01b031660a0830152151560c082015260e001610143565b600a54610224906001600160a01b031681565b60075460085461031f916001600160a01b03169082565b604080516001600160a01b039093168352602083019190915201610143565b61016c61034c366004611871565b611404565b61015461035f366004611a49565b611564565b6006546040516370a0823160e01b81523060048201526000916001600160a01b0316906370a0823190602401602060405180830381865afa1580156103ad573d6000803e3d6000fd5b505050506040513d601f19601f820116820180604052508101906103d19190611a8a565b905090565b600954600254600091116103ea5750600090565b6002546009805460009290811061040357610403611aa3565b600091825260209091200154604051634d5532e160e11b81523060048201526001600160a01b0390911691508190639aaa65c290602401602060405180830381865afa158015610457573d6000803e3d6000fd5b505050506040513d601f19601f8201168201806040525081019061047b9190611ac9565b91505090565b610489611625565b60015460ff166104d95760405162461bcd60e51b815260206004820152601660248201527515985d5b1d08185b1c9958591e481d5b9b1bd8dad95960521b60448201526064015b60405180910390fd5b6009546002541061052c5760405162461bcd60e51b815260206004820152601860248201527f4e6f206d6f72652072756c657320746f2065786563757465000000000000000060448201526064016104d0565b6002546009805460009290811061054557610545611aa3565b600091825260209091200154604051634d5532e160e11b81523060048201526001600160a01b0390911691508190639aaa65c290602401602060405180830381865afa158015610599573d6000803e3d6000fd5b505050506040513d601f19601f820116820180604052508101906105bd9190611ac9565b6106025760405162461bcd60e51b8152602060048201526016602482015275149d5b194818dbdb991a5d1a5bdb881b9bdd081b595d60521b60448201526064016104d0565b60405163227b630360e01b815230600482015260009081906001600160a01b0384169063227b63039060240160408051808303816000875af115801561064c573d6000803e3d6000fd5b505050506040513d601f19601f820116820180604052508101906106709190611ae4565b91509150816106b95760405162461bcd60e51b8152602060048201526015602482015274149d5b1948195e1958dd5d1a5bdb8819985a5b1959605a1b60448201526064016104d0565b60025460405183151581526001600160a01b03851691907fc75548cc6dbf7198a10c54c2af15cc21b540a959244f40ce517e22f3813df77d9060200160405180910390a36000836001600160a01b03166380db0d516040518163ffffffff1660e01b8152600401602060405180830381865afa15801561073d573d6000803e3d6000fd5b505050506040513d601f19601f820116820180604052508101906107619190611b10565b90506001600160a01b0381161561078e57600680546001600160a01b0319166001600160a01b0383161790555b6002548211156107a25760028290556107b8565b600280549060006107b283611b43565b91905055505b6009546002541061081b576001805460ff191690556006805460ff60a01b1916600160a01b1790556040517f90e8e44ba954223279320759a2f9a1b87689b002308a9d2ee213eda4493a2e4a906108129042815260200190565b60405180910390a15b505050506108296001600055565b565b6040516370a0823160e01b81523060048201526000906001600160a01b038316906370a0823190602401602060405180830381865afa158015610872573d6000803e3d6000fd5b505050506040513d601f19601f820116820180604052508101906108969190611a8a565b92915050565b6108a4611625565b600c546001600160a01b031633146108ce5760405162461bcd60e51b81526004016104d090611b5c565b60015460ff16156109195760405162461bcd60e51b815260206004820152601560248201527415985d5b1d081a5cc81cdd1a5b1b081b1bd8dad959605a1b60448201526064016104d0565b600654600160a01b900460ff1661098a5760405162461bcd60e51b815260206004820152602f60248201527f5661756c74206e6f7420636f6d706c65746564207375636365737366756c6c7960448201526e2028757365206661696c736166652960881b60648201526084016104d0565b6006546040516370a0823160e01b81523060048201526001600160a01b039091169060009082906370a0823190602401602060405180830381865afa1580156109d7573d6000803e3d6000fd5b505050506040513d601f19601f820116820180604052508101906109fb9190611a8a565b905060008111610a445760405162461bcd60e51b81526020600482015260146024820152734e6f2066756e647320746f20776974686472617760601b60448201526064016104d0565b600354600090821115610a6157600354610a5e9083611b89565b90505b6000828215610ab357612710600e5484610a7b9190611b9c565b610a859190611bb3565b9150610a918285611b89565b90508115610ab357600b54610ab3906001600160a01b0387811691168461164f565b600c54610acd906001600160a01b0387811691168361164f565b600c5460408051838152602081018590526001600160a01b03909216917f92ccf450a286a957af52509bc1c9939d1a6a481783e142e41e2499f0bb66ebc6910160405180910390a250505050506108296001600055565b6003546006546040516370a0823160e01b815230600482015260009182916001600160a01b03909116906370a0823190602401602060405180830381865afa158015610b74573d6000803e3d6000fd5b505050506040513d601f19601f82011682018060405250810190610b989190611a8a565b915082821115610bb357610bac8383611b89565b9050909192565b506000909192565b60606007600201805480602002602001604051908101604052809291908181526020018280548015610c1657602002820191906000526020600020905b81546001600160a01b03168152600190910190602001808311610bf8575b5050505050905090565b600a546001600160a01b031615610c6f5760405162461bcd60e51b8152602060048201526013602482015272105b1c9958591e481a5b9a5d1a585b1a5e9959606a1b60448201526064016104d0565b6001600160a01b038816610cb55760405162461bcd60e51b815260206004820152600d60248201526c24b73b30b634b21037bbb732b960991b60448201526064016104d0565b6001600160a01b038716610d035760405162461bcd60e51b815260206004820152601560248201527424b73b30b634b2103232b837b9b4ba103a37b5b2b760591b60448201526064016104d0565b62015180861015610d565760405162461bcd60e51b815260206004820152601f60248201527f4661696c73616665206d757374206265206174206c656173742031206461790060448201526064016104d0565b63bbf81e00861115610db45760405162461bcd60e51b815260206004820152602160248201527f4661696c7361666520746f6f206c6f6e6720286d6178203130302079656172736044820152602960f81b60648201526084016104d0565b6001600160a01b038516610dfc5760405162461bcd60e51b815260206004820152600f60248201526e496e76616c696420666163746f727960881b60448201526064016104d0565b6001600160a01b038416610e455760405162461bcd60e51b815260206004820152601060248201526f496e76616c696420747265617375727960801b60448201526064016104d0565b6064831115610e965760405162461bcd60e51b815260206004820152601d60248201527f4465706f7369742066656520746f6f206869676820286d61782031252900000060448201526064016104d0565b6103e8821115610ee85760405162461bcd60e51b815260206004820152601e60248201527f537563636573732066656520746f6f206869676820286d61782031302529000060448201526064016104d0565b600c80546001600160a01b03808b166001600160a01b03199283161790925560078054928a1692909116919091179055600886905560005b8151811015610ff75760006001600160a01b0316828281518110610f4657610f46611aa3565b60200260200101516001600160a01b031603610f935760405162461bcd60e51b815260206004820152600c60248201526b496e76616c69642072756c6560a01b60448201526064016104d0565b6007600201828281518110610faa57610faa611aa3565b60209081029190910181015182546001810184556000938452919092200180546001600160a01b0319166001600160a01b0390921691909117905580610fef81611b43565b915050610f20565b50600a80546001600160a01b038088166001600160a01b031992831617909255600b8054878416908316179055600d859055600e84905560068054928a16929091169190911790556110498642611bd5565b60055550506001805460ff191681179055505050505050565b60015460025460055460ff90921691600090819081904210611085576000611093565b600554611093904290611b89565b6006549596949590946001600160a01b0382169450600160a01b90910460ff1692509050565b6110c1611625565b600c546001600160a01b031633146110eb5760405162461bcd60e51b81526004016104d090611b5c565b60015460ff166111305760405162461bcd60e51b815260206004820152601060248201526f15985d5b1d081b9bdd081b1bd8dad95960821b60448201526064016104d0565b6005544210156111825760405162461bcd60e51b815260206004820152601a60248201527f4661696c736166652074696d6572206e6f74206578706972656400000000000060448201526064016104d0565b6006546040516370a0823160e01b81523060048201526001600160a01b039091169060009082906370a0823190602401602060405180830381865afa1580156111cf573d6000803e3d6000fd5b505050506040513d601f19601f820116820180604052508101906111f39190611a8a565b90506000811161123c5760405162461bcd60e51b81526020600482015260146024820152734e6f2066756e647320746f20776974686472617760601b60448201526064016104d0565b600c54611256906001600160a01b0384811691168361164f565b6001805460ff191690556006805460ff60a01b19169055600c546040518281526001600160a01b03909116907f05c1a780ebeed5a42e7a0faba879373103b5f8129aff68ed7c26fd0aaf22f25e9060200160405180910390a250506108296001600055565b6112c3611625565b600081116113135760405162461bcd60e51b815260206004820152601d60248201527f416d6f756e74206d7573742062652067726561746572207468616e203000000060448201526064016104d0565b600654600d546001600160a01b0390911690600090612710906113369085611b9c565b6113409190611bb3565b9050600061134e8285611b89565b90506113656001600160a01b0384163330876116b3565b811561138557600b54611385906001600160a01b0385811691168461164f565b806001600201600082825461139a9190611bd5565b9091555050600480548391906000906113b4908490611bd5565b9091555050604080518281526020810184905233917f73a19dd210f1a7f902193214c0ee91dd35ee5b4d920cba8d519eca65a7b488ca910160405180910390a25050506114016001600055565b50565b600c546001600160a01b0316331461142e5760405162461bcd60e51b81526004016104d090611b5c565b60015460ff1661148e5760405162461bcd60e51b815260206004820152602560248201527f43616e6e6f74206164642072756c6573206166746572207661756c7420756e6c6044820152641bd8dad95960da1b60648201526084016104d0565b6001600160a01b0381166114d35760405162461bcd60e51b815260206004820152600c60248201526b496e76616c69642072756c6560a01b60448201526064016104d0565b600980546001808201835560008390527f6e1540171b6c0c960b71a7020d9f60077f6af931a8bbf590da0223dacf75c7af90910180546001600160a01b0319166001600160a01b03851690811790915591547f4eb2fdec03aca4b211c79a77b39e7d5a0bdf14eaaf303c07d9509ce7186c94279161155091611b89565b60405190815260200160405180910390a250565b600080805b6009548110156115bf57600980543391908390811061158a5761158a611aa3565b6000918252602090912001546001600160a01b0316036115ad57600191506115bf565b806115b781611b43565b915050611569565b50806116045760405162461bcd60e51b815260206004820152601460248201527343616c6c6572206973206e6f7420612072756c6560601b60448201526064016104d0565b6116186001600160a01b038616858561164f565b60019150505b9392505050565b60026000540361164857604051633ee5aeb560e01b815260040160405180910390fd5b6002600055565b6040516001600160a01b038381166024830152604482018390526116ae91859182169063a9059cbb906064015b604051602081830303815290604052915060e01b6020820180516001600160e01b0383818316178352505050506116f2565b505050565b6040516001600160a01b0384811660248301528381166044830152606482018390526116ec9186918216906323b872dd9060840161167c565b50505050565b60006117076001600160a01b03841683611755565b9050805160001415801561172c57508080602001905181019061172a9190611ac9565b155b156116ae57604051635274afe760e01b81526001600160a01b03841660048201526024016104d0565b606061161e8383600084600080856001600160a01b0316848660405161177b9190611be8565b60006040518083038185875af1925050503d80600081146117b8576040519150601f19603f3d011682016040523d82523d6000602084013e6117bd565b606091505b50915091506117cd8683836117d7565b9695505050505050565b6060826117ec576117e782611833565b61161e565b815115801561180357506001600160a01b0384163b155b1561182c57604051639996b31560e01b81526001600160a01b03851660048201526024016104d0565b508061161e565b8051156118435780518082602001fd5b604051630a12f52160e11b815260040160405180910390fd5b6001600160a01b038116811461140157600080fd5b60006020828403121561188357600080fd5b813561161e8161185c565b6020808252825182820181905260009190848201906040850190845b818110156118cf5783516001600160a01b0316835292840192918401916001016118aa565b50909695505050505050565b634e487b7160e01b600052604160045260246000fd5b80356118fc8161185c565b919050565b600080600080600080600080610100898b03121561191e57600080fd5b88356119298161185c565b975060208981013561193a8161185c565b975060408a0135965060608a01356119518161185c565b955060808a01356119618161185c565b945060a08a0135935060c08a0135925060e08a013567ffffffffffffffff8082111561198c57600080fd5b818c0191508c601f8301126119a057600080fd5b8135818111156119b2576119b26118db565b8060051b604051601f19603f830116810181811085821117156119d7576119d76118db565b60405291825284820192508381018501918f8311156119f557600080fd5b938501935b82851015611a1a57611a0b856118f1565b845293850193928501926119fa565b8096505050505050509295985092959890939650565b600060208284031215611a4257600080fd5b5035919050565b600080600060608486031215611a5e57600080fd5b8335611a698161185c565b92506020840135611a798161185c565b929592945050506040919091013590565b600060208284031215611a9c57600080fd5b5051919050565b634e487b7160e01b600052603260045260246000fd5b805180151581146118fc57600080fd5b600060208284031215611adb57600080fd5b61161e82611ab9565b60008060408385031215611af757600080fd5b611b0083611ab9565b9150602083015190509250929050565b600060208284031215611b2257600080fd5b815161161e8161185c565b634e487b7160e01b600052601160045260246000fd5b600060018201611b5557611b55611b2d565b5060010190565b60208082526013908201527221b0b63632b91034b9903737ba1037bbb732b960691b604082015260600190565b8181038181111561089657610896611b2d565b808202811582820484141761089657610896611b2d565b600082611bd057634e487b7160e01b600052601260045260246000fd5b500490565b8082018082111561089657610896611b2d565b6000825160005b81811015611c095760208186018101518583015201611bef565b50600092019182525091905056fea2646970667358221220198b5c3b444eb9e7b6e3ccb64cec444b4eb6e09cd105d1801748a30832a84cd164736f6c63430008140033",
  "linkReferences": {},
  "deployedLinkReferences": {}
}