{
  "_format": "hh-sol-artifact-1",
  "contractName": "TimeLockRule",
  "sourceName": "contracts/rules/TimeLockRule.sol",
  "abi": [
    {
      "inputs": [
        {
          "internalType": "uint256",
          "name": "_endTime",
          "type": "uint256"
        }
      ],
      "stateMutability": "nonpayable",
      "type": "constructor"
    },
    {
      "inputs": [
        {
          "internalType": "address",
          "name": "",
          "type": "address"
        }
      ],
      "name": "checkCondition",
      "outputs": [
        {
          "internalType": "bool",
          "name": "",
          "type": "bool"
        }
      ],
      "stateMutability": "view",
      "type": "function"
    },
    {
      "inputs": [
        {
          "internalType": "address",
          "name": "",
          "type": "address"
        }
      ],
      "name": "executeAction",
      "outputs": [
        {
          "internalType": "bool",
          "name": "success",
          "type": "bool"
        },
        {
          "internalType": "uint256",
          "name": "nextRuleIndex",
          "type": "uint256"
        }
      ],
      "stateMutability": "nonpayable",
      "type": "function"
    },
    {
      "inputs": [],
      "name": "getDescription",
      "outputs": [
        {
          "internalType": "string",
          "name": "",
          "type": "string"
        }
      ],
      "stateMutability": "view",
      "type": "function"
    },
    {
      "inputs": [],
      "name": "getTargetToken",
      "outputs": [
        {
          "internalType": "address",
          "name": "",
          "type": "address"
        }
      ],
      "stateMutability": "pure",
      "type": "function"
    },
    {
      "inputs": [],
      "name": "unlockTime",
      "outputs": [
        {
          "internalType": "uint256",
          "name": "",
          "type": "uint256"
        }
      ],
      "stateMutability": "view",
      "type": "function"
    }
  ],
  "bytecode": "0x608060405234801561001057600080fd5b5060405161040a38038061040a83398101604081905261002f91610037565b600055610050565b60006020828403121561004957600080fd5b5051919050565b6103ab8061005f6000396000f3fe608060405234801561001057600080fd5b50600436106100575760003560e01c80631a0925411461005c578063227b63031461007a578063251c1aa3146100a857806380db0d51146100bf5780639aaa65c2146100ce575b600080fd5b6100646100f6565b60405161007191906102b7565b60405180910390f35b6100916100883660046102ea565b50600190600090565b604080519215158352602083019190915201610071565b6100b160005481565b604051908152602001610071565b60405160008152602001610071565b6100e66100dc3660046102ea565b5060005442101590565b6040519015158152602001610071565b6060610103600054610127565b604051602001610113919061031a565b604051602081830303815290604052905090565b60606000610134836101ba565b600101905060008167ffffffffffffffff8111156101545761015461035f565b6040519080825280601f01601f19166020018201604052801561017e576020820181803683370190505b5090508181016020015b600019016f181899199a1a9b1b9c1cb0b131b232b360811b600a86061a8153600a850494508461018857509392505050565b60008072184f03e93ff9f4daa797ed6e38ed64bf6a1f0160401b83106101f95772184f03e93ff9f4daa797ed6e38ed64bf6a1f0160401b830492506040015b6d04ee2d6d415b85acef81000000008310610225576d04ee2d6d415b85acef8100000000830492506020015b662386f26fc10000831061024357662386f26fc10000830492506010015b6305f5e100831061025b576305f5e100830492506008015b612710831061026f57612710830492506004015b60648310610281576064830492506002015b600a831061028d576001015b92915050565b60005b838110156102ae578181015183820152602001610296565b50506000910152565b60208152600082518060208401526102d6816040850160208701610293565b601f01601f19169190910160400192915050565b6000602082840312156102fc57600080fd5b81356001600160a01b038116811461031357600080fd5b9392505050565b7f54696d654c6f636b3a20556e6c6f636b732061742074696d657374616d70200081526000825161035281601f850160208701610293565b91909101601f0192915050565b634e487b7160e01b600052604160045260246000fdfea2646970667358221220eee4d5f5cc6cf8955802bec45e16dc4f3585e34b69023c3fbb696673ed78557164736f6c63430008140033",
  "linkReferences": {},
  "deployedLinkReferences": {}
}