{
  "_format": "hh-sol-artifact-1",
  "contractName": "TimeLockRule",
  "sourceName": "contracts/rules/TimeLockRule.sol",
  "abi": [
    {
      "inputs": [
        {
          "internalType": "uint256",
          "name": "_endTime",
          "type": "uint256"
        }
      ],
      "stateMutability": "nonpayable",
      "type": "constructor"
    },
    {
      "inputs": [
        {
          "internalType": "address",
          "name": "",
          "type": "address"
        }
      ],
      "name": "check",
      "outputs": [
        {
          "internalType": "bool",
          "name": "",
          "type": "bool"
        }
      ],
      "stateMutability": "view",
      "type": "function"
    },
    {
      "inputs": [],
      "name": "getDescription",
      "outputs": [
        {
          "internalType": "string",
          "name": "",
          "type": "string"
        }
      ],
      "stateMutability": "view",
      "type": "function"
    },
    {
      "inputs": [],
      "name": "unlockTime",
      "outputs": [
        {
          "internalType": "uint256",
          "name": "",
          "type": "uint256"
        }
      ],
      "stateMutability": "view",
      "type": "function"
    }
  ],
  "bytecode": "0x608060405234801561001057600080fd5b506040516103b73803806103b783398101604081905261002f91610037565b600055610050565b60006020828403121561004957600080fd5b5051919050565b6103588061005f6000396000f3fe608060405234801561001057600080fd5b50600436106100415760003560e01c80631a09254114610046578063251c1aa314610064578063c23697a81461007b575b600080fd5b61004e6100a3565b60405161005b9190610264565b60405180910390f35b61006d60005481565b60405190815260200161005b565b610093610089366004610297565b5060005442101590565b604051901515815260200161005b565b60606100b06000546100d4565b6040516020016100c091906102c7565b604051602081830303815290604052905090565b606060006100e183610167565b600101905060008167ffffffffffffffff8111156101015761010161030c565b6040519080825280601f01601f19166020018201604052801561012b576020820181803683370190505b5090508181016020015b600019016f181899199a1a9b1b9c1cb0b131b232b360811b600a86061a8153600a850494508461013557509392505050565b60008072184f03e93ff9f4daa797ed6e38ed64bf6a1f0160401b83106101a65772184f03e93ff9f4daa797ed6e38ed64bf6a1f0160401b830492506040015b6d04ee2d6d415b85acef810000000083106101d2576d04ee2d6d415b85acef8100000000830492506020015b662386f26fc1000083106101f057662386f26fc10000830492506010015b6305f5e1008310610208576305f5e100830492506008015b612710831061021c57612710830492506004015b6064831061022e576064830492506002015b600a831061023a576001015b92915050565b60005b8381101561025b578181015183820152602001610243565b50506000910152565b6020815260008251806020840152610283816040850160208701610240565b601f01601f19169190910160400192915050565b6000602082840312156102a957600080fd5b81356001600160a01b03811681146102c057600080fd5b9392505050565b7f54696d654c6f636b3a20556e6c6f636b732061742074696d657374616d7020008152600082516102ff81601f850160208701610240565b91909101601f0192915050565b634e487b7160e01b600052604160045260246000fdfea2646970667358221220d92175e4a3bcd1307cb1cf45f4616b947ceab9f0f0ffcb81adae5083730f02ac64736f6c63430008140033",
  "linkReferences": {},
  "deployedLinkReferences": {}
}