{
  "_format": "hh-sol-artifact-1",
  "contractName": "VaultProxyFactory",
  "sourceName": "contracts/VaultProxyFactory.sol",
  "abi": [
    {
      "inputs": [
        {
          "internalType": "address",
          "name": "_implementation",
          "type": "address"
        },
        {
          "internalType": "address",
          "name": "_treasury",
          "type": "address"
        },
        {
          "internalType": "uint256",
          "name": "_depositFeeBps",
          "type": "uint256"
        },
        {
          "internalType": "uint256",
          "name": "_successFeeBps",
          "type": "uint256"
        }
      ],
      "stateMutability": "nonpayable",
      "type": "constructor"
    },
    {
      "inputs": [],
      "name": "ERC1167FailedCreateClone",
      "type": "error"
    },
    {
      "inputs": [
        {
          "internalType": "address",
          "name": "owner",
          "type": "address"
        }
      ],
      "name": "OwnableInvalidOwner",
      "type": "error"
    },
    {
      "inputs": [
        {
          "internalType": "address",
          "name": "account",
          "type": "address"
        }
      ],
      "name": "OwnableUnauthorizedAccount",
      "type": "error"
    },
    {
      "anonymous": false,
      "inputs": [
        {
          "indexed": false,
          "internalType": "uint256",
          "name": "depositFeeBps",
          "type": "uint256"
        },
        {
          "indexed": false,
          "internalType": "uint256",
          "name": "successFeeBps",
          "type": "uint256"
        }
      ],
      "name": "FeesUpdated",
      "type": "event"
    },
    {
      "anonymous": false,
      "inputs": [
        {
          "indexed": false,
          "internalType": "address",
          "name": "newImplementation",
          "type": "address"
        }
      ],
      "name": "ImplementationUpgraded",
      "type": "event"
    },
    {
      "anonymous": false,
      "inputs": [
        {
          "indexed": true,
          "internalType": "address",
          "name": "previousOwner",
          "type": "address"
        },
        {
          "indexed": true,
          "internalType": "address",
          "name": "newOwner",
          "type": "address"
        }
      ],
      "name": "OwnershipTransferred",
      "type": "event"
    },
    {
      "anonymous": false,
      "inputs": [
        {
          "indexed": false,
          "internalType": "address",
          "name": "newTreasury",
          "type": "address"
        }
      ],
      "name": "TreasuryUpdated",
      "type": "event"
    },
    {
      "anonymous": false,
      "inputs": [
        {
          "indexed": true,
          "internalType": "address",
          "name": "proxy",
          "type": "address"
        },
        {
          "indexed": true,
          "internalType": "address",
          "name": "owner",
          "type": "address"
        },
        {
          "indexed": false,
          "internalType": "address",
          "name": "depositToken",
          "type": "address"
        },
        {
          "indexed": false,
          "internalType": "uint256",
          "name": "failsafeDuration",
          "type": "uint256"
        },
        {
          "indexed": false,
          "internalType": "uint256",
          "name": "vaultId",
          "type": "uint256"
        }
      ],
      "name": "VaultCreated",
      "type": "event"
    },
    {
      "inputs": [
        {
          "internalType": "address",
          "name": "owner",
          "type": "address"
        },
        {
          "internalType": "address",
          "name": "depositToken",
          "type": "address"
        },
        {
          "internalType": "uint256",
          "name": "failsafeDuration",
          "type": "uint256"
        },
        {
          "internalType": "contract IStrategyRule[]",
          "name": "initialRules",
          "type": "address[]"
        }
      ],
      "name": "createVault",
      "outputs": [
        {
          "internalType": "address",
          "name": "vaultProxy",
          "type": "address"
        }
      ],
      "stateMutability": "nonpayable",
      "type": "function"
    },
    {
      "inputs": [
        {
          "internalType": "uint256",
          "name": "",
          "type": "uint256"
        }
      ],
      "name": "deployedVaults",
      "outputs": [
        {
          "internalType": "address",
          "name": "",
          "type": "address"
        }
      ],
      "stateMutability": "view",
      "type": "function"
    },
    {
      "inputs": [],
      "name": "depositFeeBps",
      "outputs": [
        {
          "internalType": "uint256",
          "name": "",
          "type": "uint256"
        }
      ],
      "stateMutability": "view",
      "type": "function"
    },
    {
      "inputs": [],
      "name": "getAllVaults",
      "outputs": [
        {
          "internalType": "address[]",
          "name": "",
          "type": "address[]"
        }
      ],
      "stateMutability": "view",
      "type": "function"
    },
    {
      "inputs": [
        {
          "internalType": "uint256",
          "name": "index",
          "type": "uint256"
        }
      ],
      "name": "getVault",
      "outputs": [
        {
          "internalType": "address",
          "name": "",
          "type": "address"
        }
      ],
      "stateMutability": "view",
      "type": "function"
    },
    {
      "inputs": [],
      "name": "getVaultCount",
      "outputs": [
        {
          "internalType": "uint256",
          "name": "",
          "type": "uint256"
        }
      ],
      "stateMutability": "view",
      "type": "function"
    },
    {
      "inputs": [],
      "name": "implementation",
      "outputs": [
        {
          "internalType": "address",
          "name": "",
          "type": "address"
        }
      ],
      "stateMutability": "view",
      "type": "function"
    },
    {
      "inputs": [],
      "name": "owner",
      "outputs": [
        {
          "internalType": "address",
          "name": "",
          "type": "address"
        }
      ],
      "stateMutability": "view",
      "type": "function"
    },
    {
      "inputs": [],
      "name": "renounceOwnership",
      "outputs": [],
      "stateMutability": "nonpayable",
      "type": "function"
    },
    {
      "inputs": [],
      "name": "successFeeBps",
      "outputs": [
        {
          "internalType": "uint256",
          "name": "",
          "type": "uint256"
        }
      ],
      "stateMutability": "view",
      "type": "function"
    },
    {
      "inputs": [
        {
          "internalType": "address",
          "name": "newOwner",
          "type": "address"
        }
      ],
      "name": "transferOwnership",
      "outputs": [],
      "stateMutability": "nonpayable",
      "type": "function"
    },
    {
      "inputs": [],
      "name": "treasury",
      "outputs": [
        {
          "internalType": "address",
          "name": "",
          "type": "address"
        }
      ],
      "stateMutability": "view",
      "type": "function"
    },
    {
      "inputs": [
        {
          "internalType": "uint256",
          "name": "newDepositFeeBps",
          "type": "uint256"
        },
        {
          "internalType": "uint256",
          "name": "newSuccessFeeBps",
          "type": "uint256"
        }
      ],
      "name": "updateFees",
      "outputs": [],
      "stateMutability": "nonpayable",
      "type": "function"
    },
    {
      "inputs": [
        {
          "internalType": "address",
          "name": "newTreasury",
          "type": "address"
        }
      ],
      "name": "updateTreasury",
      "outputs": [],
      "stateMutability": "nonpayable",
      "type": "function"
    },
    {
      "inputs": [
        {
          "internalType": "address",
          "name": "newImplementation",
          "type": "address"
        }
      ],
      "name": "upgradeImplementation",
      "outputs": [],
      "stateMutability": "nonpayable",
      "type": "function"
    }
  ],
  "bytecode": "0x608060405234801561001057600080fd5b50604051610eae380380610eae83398101604081905261002f916101a9565b338061005657604051631e4fbdf760e01b8152600060048201526024015b60405180910390fd5b61005f8161013d565b506001600160a01b0384166100b65760405162461bcd60e51b815260206004820152601660248201527f496e76616c696420696d706c656d656e746174696f6e00000000000000000000604482015260640161004d565b6001600160a01b0383166100ff5760405162461bcd60e51b815260206004820152601060248201526f496e76616c696420747265617375727960801b604482015260640161004d565b600180546001600160a01b039586166001600160a01b03199182161790915560038054949095169316929092179092556004919091556005556101ec565b600080546001600160a01b038381166001600160a01b0319831681178455604051919092169283917f8be0079c531659141344cd1fd0a4f28419497f9722a3daafe3b4186f6b6457e09190a35050565b80516001600160a01b03811681146101a457600080fd5b919050565b600080600080608085870312156101bf57600080fd5b6101c88561018d565b93506101d66020860161018d565b6040860151606090960151949790965092505050565b610cb3806101fb6000396000f3fe608060405234801561001057600080fd5b50600436106100f55760003560e01c80637561841a116100975780639403b634116100665780639403b634146101d257806397331bf9146101e5578063ab879827146101fa578063f2fde38b1461020357600080fd5b80637561841a146101925780637f51bb1f1461019b57806383f94db7146101ae5780638da5cb5b146101c157600080fd5b806361d027b3116100d357806361d027b3146101505780636db7943714610163578063715018a61461017857806374d4e4911461018057600080fd5b806307846332146100fa5780630ac214df1461012a5780635c60da1b1461013d575b600080fd5b61010d6101083660046109e0565b610216565b6040516001600160a01b0390911681526020015b60405180910390f35b61010d610138366004610ad4565b610528565b60015461010d906001600160a01b031681565b60035461010d906001600160a01b031681565b610176610171366004610aed565b610552565b005b610176610644565b6002545b604051908152602001610121565b61018460055481565b6101766101a9366004610b0f565b610658565b6101766101bc366004610b0f565b6106fe565b6000546001600160a01b031661010d565b61010d6101e0366004610ad4565b6107a3565b6101ed61081b565b6040516101219190610b33565b61018460045481565b610176610211366004610b0f565b61087d565b60006001600160a01b0385166102635760405162461bcd60e51b815260206004820152600d60248201526c24b73b30b634b21037bbb732b960991b60448201526064015b60405180910390fd5b6001600160a01b0384166102b15760405162461bcd60e51b815260206004820152601560248201527424b73b30b634b2103232b837b9b4ba103a37b5b2b760591b604482015260640161025a565b620151808310156103045760405162461bcd60e51b815260206004820152601f60248201527f4661696c73616665206d757374206265206174206c6561737420312064617900604482015260640161025a565b63bbf81e008311156103625760405162461bcd60e51b815260206004820152602160248201527f4661696c7361666520746f6f206c6f6e6720286d6178203130302079656172736044820152602960f81b606482015260840161025a565b600154610377906001600160a01b03166108bb565b6003546004546005546040519394506000936001600160a01b03808716946103af948c948c948c943094169291908c90602401610b80565b60408051601f198184030181529181526020820180516001600160e01b03166346fc3f8560e01b179052516103e49190610c11565b6000604051808303816000865af19150503d8060008114610421576040519150601f19603f3d011682016040523d82523d6000602084013e610426565b606091505b505090508061046f5760405162461bcd60e51b8152602060048201526015602482015274125b9a5d1a585b1a5e985d1a5bdb8819985a5b1959605a1b604482015260640161025a565b600280546001808201835560008390527f405787fa12a823e0f2b7631cc41b3ba8828b3321ca811111fa75cd3aa3bb5ace90910180546001600160a01b0319166001600160a01b03868116918217909255925490891692917ff5e28822e1b5786a93e96fbc576e8b4a152b6603306deef493d6066624ee71fa91899189916104f79190610c40565b604080516001600160a01b03909416845260208401929092529082015260600160405180910390a350949350505050565b6002818154811061053857600080fd5b6000918252602090912001546001600160a01b0316905081565b61055a61092d565b60648211156105ab5760405162461bcd60e51b815260206004820152601d60248201527f4465706f7369742066656520746f6f206869676820286d617820312529000000604482015260640161025a565b6103e88111156105fd5760405162461bcd60e51b815260206004820152601e60248201527f537563636573732066656520746f6f206869676820286d617820313025290000604482015260640161025a565b6004829055600581905560408051838152602081018390527f5c6323bf1c2d7aaea2c091a4751c1c87af7f2864650c336507a77d0557af37a1910160405180910390a15050565b61064c61092d565b610656600061095a565b565b61066061092d565b6001600160a01b0381166106a95760405162461bcd60e51b815260206004820152601060248201526f496e76616c696420747265617375727960801b604482015260640161025a565b600380546001600160a01b0319166001600160a01b0383169081179091556040519081527f7dae230f18360d76a040c81f050aa14eb9d6dc7901b20fc5d855e2a20fe814d1906020015b60405180910390a150565b61070661092d565b6001600160a01b0381166107555760405162461bcd60e51b815260206004820152601660248201527524b73b30b634b21034b6b83632b6b2b73a30ba34b7b760511b604482015260640161025a565b600180546001600160a01b0319166001600160a01b0383169081179091556040519081527f51ea6ffdc9909d5ca341259f7221902e0676585d833e2bb21fa923c85e862886906020016106f3565b60025460009082106107ed5760405162461bcd60e51b8152602060048201526013602482015272496e646578206f7574206f6620626f756e647360681b604482015260640161025a565b6002828154811061080057610800610c67565b6000918252602090912001546001600160a01b031692915050565b6060600280548060200260200160405190810160405280929190818152602001828054801561087357602002820191906000526020600020905b81546001600160a01b03168152600190910190602001808311610855575b5050505050905090565b61088561092d565b6001600160a01b0381166108af57604051631e4fbdf760e01b81526000600482015260240161025a565b6108b88161095a565b50565b6000763d602d80600a3d3981f3363d3d373d3d3d363d730000008260601b60e81c176000526e5af43d82803e903d91602b57fd5bf38260781b17602052603760096000f090506001600160a01b038116610928576040516330be1a3d60e21b815260040160405180910390fd5b919050565b6000546001600160a01b031633146106565760405163118cdaa760e01b815233600482015260240161025a565b600080546001600160a01b038381166001600160a01b0319831681178455604051919092169283917f8be0079c531659141344cd1fd0a4f28419497f9722a3daafe3b4186f6b6457e09190a35050565b6001600160a01b03811681146108b857600080fd5b634e487b7160e01b600052604160045260246000fd5b8035610928816109aa565b600080600080608085870312156109f657600080fd5b8435610a01816109aa565b9350602085810135610a12816109aa565b935060408601359250606086013567ffffffffffffffff80821115610a3657600080fd5b818801915088601f830112610a4a57600080fd5b813581811115610a5c57610a5c6109bf565b8060051b604051601f19603f83011681018181108582111715610a8157610a816109bf565b60405291825284820192508381018501918b831115610a9f57600080fd5b938501935b82851015610ac457610ab5856109d5565b84529385019392850192610aa4565b989b979a50959850505050505050565b600060208284031215610ae657600080fd5b5035919050565b60008060408385031215610b0057600080fd5b50508035926020909101359150565b600060208284031215610b2157600080fd5b8135610b2c816109aa565b9392505050565b6020808252825182820181905260009190848201906040850190845b81811015610b745783516001600160a01b031683529284019291840191600101610b4f565b50909695505050505050565b6001600160a01b038981168252888116602080840191909152604083018990528782166060840152868216608084015260a0830186905260c0830185905261010060e08401819052845190840181905260009261012085019286810192855b81811015610bfd578451841686529482019493820193600101610bdf565b50939e9d5050505050505050505050505050565b6000825160005b81811015610c325760208186018101518583015201610c18565b506000920191825250919050565b81810381811115610c6157634e487b7160e01b600052601160045260246000fd5b92915050565b634e487b7160e01b600052603260045260246000fdfea26469706673582212208f704d95267a3ae1c0454f5effc22491ca8a8a57e121b3ab33c14fe484a5be5964736f6c63430008140033",
  "linkReferences": {},
  "deployedLinkReferences": {}
}